{
  "address": "0x8B1e454A52D10e1F5E036028a4034E58081335aE",
  "abi": [
    {
      "inputs": [
        {
          "internalType": "string",
          "name": "LowNFTSvg",
          "type": "string"
        },
        {
          "internalType": "string",
          "name": "highNFTSvg",
          "type": "string"
        }
      ],
      "stateMutability": "nonpayable",
      "type": "constructor"
    },
    {
      "inputs": [],
      "name": "DifferNFT_invalidTokenId",
      "type": "error"
    },
    {
      "anonymous": false,
      "inputs": [
        {
          "indexed": true,
          "internalType": "address",
          "name": "owner",
          "type": "address"
        },
        {
          "indexed": true,
          "internalType": "address",
          "name": "approved",
          "type": "address"
        },
        {
          "indexed": true,
          "internalType": "uint256",
          "name": "tokenId",
          "type": "uint256"
        }
      ],
      "name": "Approval",
      "type": "event"
    },
    {
      "anonymous": false,
      "inputs": [
        {
          "indexed": true,
          "internalType": "address",
          "name": "owner",
          "type": "address"
        },
        {
          "indexed": true,
          "internalType": "address",
          "name": "operator",
          "type": "address"
        },
        {
          "indexed": false,
          "internalType": "bool",
          "name": "approved",
          "type": "bool"
        }
      ],
      "name": "ApprovalForAll",
      "type": "event"
    },
    {
      "anonymous": false,
      "inputs": [
        {
          "indexed": true,
          "internalType": "address",
          "name": "from",
          "type": "address"
        },
        {
          "indexed": true,
          "internalType": "address",
          "name": "to",
          "type": "address"
        },
        {
          "indexed": true,
          "internalType": "uint256",
          "name": "tokenId",
          "type": "uint256"
        }
      ],
      "name": "Transfer",
      "type": "event"
    },
    {
      "inputs": [
        {
          "internalType": "uint256",
          "name": "value",
          "type": "uint256"
        }
      ],
      "name": "Mint",
      "outputs": [],
      "stateMutability": "nonpayable",
      "type": "function"
    },
    {
      "inputs": [
        {
          "internalType": "address",
          "name": "to",
          "type": "address"
        },
        {
          "internalType": "uint256",
          "name": "tokenId",
          "type": "uint256"
        }
      ],
      "name": "approve",
      "outputs": [],
      "stateMutability": "nonpayable",
      "type": "function"
    },
    {
      "inputs": [
        {
          "internalType": "address",
          "name": "owner",
          "type": "address"
        }
      ],
      "name": "balanceOf",
      "outputs": [
        {
          "internalType": "uint256",
          "name": "",
          "type": "uint256"
        }
      ],
      "stateMutability": "view",
      "type": "function"
    },
    {
      "inputs": [
        {
          "internalType": "uint256",
          "name": "tokenId",
          "type": "uint256"
        }
      ],
      "name": "getApproved",
      "outputs": [
        {
          "internalType": "address",
          "name": "",
          "type": "address"
        }
      ],
      "stateMutability": "view",
      "type": "function"
    },
    {
      "inputs": [],
      "name": "highSVGTOURI",
      "outputs": [
        {
          "internalType": "string",
          "name": "",
          "type": "string"
        }
      ],
      "stateMutability": "view",
      "type": "function"
    },
    {
      "inputs": [
        {
          "internalType": "address",
          "name": "owner",
          "type": "address"
        },
        {
          "internalType": "address",
          "name": "operator",
          "type": "address"
        }
      ],
      "name": "isApprovedForAll",
      "outputs": [
        {
          "internalType": "bool",
          "name": "",
          "type": "bool"
        }
      ],
      "stateMutability": "view",
      "type": "function"
    },
    {
      "inputs": [],
      "name": "lowSVGTOURI",
      "outputs": [
        {
          "internalType": "string",
          "name": "",
          "type": "string"
        }
      ],
      "stateMutability": "view",
      "type": "function"
    },
    {
      "inputs": [],
      "name": "name",
      "outputs": [
        {
          "internalType": "string",
          "name": "",
          "type": "string"
        }
      ],
      "stateMutability": "view",
      "type": "function"
    },
    {
      "inputs": [
        {
          "internalType": "uint256",
          "name": "tokenId",
          "type": "uint256"
        }
      ],
      "name": "ownerOf",
      "outputs": [
        {
          "internalType": "address",
          "name": "",
          "type": "address"
        }
      ],
      "stateMutability": "view",
      "type": "function"
    },
    {
      "inputs": [
        {
          "internalType": "address",
          "name": "from",
          "type": "address"
        },
        {
          "internalType": "address",
          "name": "to",
          "type": "address"
        },
        {
          "internalType": "uint256",
          "name": "tokenId",
          "type": "uint256"
        }
      ],
      "name": "safeTransferFrom",
      "outputs": [],
      "stateMutability": "nonpayable",
      "type": "function"
    },
    {
      "inputs": [
        {
          "internalType": "address",
          "name": "from",
          "type": "address"
        },
        {
          "internalType": "address",
          "name": "to",
          "type": "address"
        },
        {
          "internalType": "uint256",
          "name": "tokenId",
          "type": "uint256"
        },
        {
          "internalType": "bytes",
          "name": "data",
          "type": "bytes"
        }
      ],
      "name": "safeTransferFrom",
      "outputs": [],
      "stateMutability": "nonpayable",
      "type": "function"
    },
    {
      "inputs": [
        {
          "internalType": "address",
          "name": "operator",
          "type": "address"
        },
        {
          "internalType": "bool",
          "name": "approved",
          "type": "bool"
        }
      ],
      "name": "setApprovalForAll",
      "outputs": [],
      "stateMutability": "nonpayable",
      "type": "function"
    },
    {
      "inputs": [
        {
          "internalType": "bytes4",
          "name": "interfaceId",
          "type": "bytes4"
        }
      ],
      "name": "supportsInterface",
      "outputs": [
        {
          "internalType": "bool",
          "name": "",
          "type": "bool"
        }
      ],
      "stateMutability": "view",
      "type": "function"
    },
    {
      "inputs": [],
      "name": "symbol",
      "outputs": [
        {
          "internalType": "string",
          "name": "",
          "type": "string"
        }
      ],
      "stateMutability": "view",
      "type": "function"
    },
    {
      "inputs": [
        {
          "internalType": "uint256",
          "name": "tokenId",
          "type": "uint256"
        }
      ],
      "name": "tokenURI",
      "outputs": [
        {
          "internalType": "string",
          "name": "",
          "type": "string"
        }
      ],
      "stateMutability": "view",
      "type": "function"
    },
    {
      "inputs": [
        {
          "internalType": "address",
          "name": "from",
          "type": "address"
        },
        {
          "internalType": "address",
          "name": "to",
          "type": "address"
        },
        {
          "internalType": "uint256",
          "name": "tokenId",
          "type": "uint256"
        }
      ],
      "name": "transferFrom",
      "outputs": [],
      "stateMutability": "nonpayable",
      "type": "function"
    }
  ],
  "transactionHash": "0xdf045ad7ebb8fc470ba6587f423ec312bba90924bab54e56008e6f4ae631e3e0",
  "args": [
    "<?xml version=\"1.0\" standalone=\"no\"?>\n<svg width=\"1024px\" height=\"1024px\" viewBox=\"0 0 1024 1024\" xmlns=\"http://www.w3.org/2000/svg\">\n  <path fill=\"#333\" d=\"M512 64C264.6 64 64 264.6 64 512s200.6 448 448 448 448-200.6 448-448S759.4 64 512 64zm0 820c-205.4 0-372-166.6-372-372s166.6-372 372-372 372 166.6 372 372-166.6 372-372 372z\"/>\n  <path fill=\"#E6E6E6\" d=\"M512 140c-205.4 0-372 166.6-372 372s166.6 372 372 372 372-166.6 372-372-166.6-372-372-372zM288 421a48.01 48.01 0 0 1 96 0 48.01 48.01 0 0 1-96 0zm376 272h-48.1c-4.2 0-7.8-3.2-8.1-7.4C604 636.1 562.5 597 512 597s-92.1 39.1-95.8 88.6c-.3 4.2-3.9 7.4-8.1 7.4H360a8 8 0 0 1-8-8.4c4.4-84.3 74.5-151.6 160-151.6s155.6 67.3 160 151.6a8 8 0 0 1-8 8.4zm24-224a48.01 48.01 0 0 1 0-96 48.01 48.01 0 0 1 0 96z\"/>\n  <path fill=\"#333\" d=\"M288 421a48 48 0 1 0 96 0 48 48 0 1 0-96 0zm224 112c-85.5 0-155.6 67.3-160 151.6a8 8 0 0 0 8 8.4h48.1c4.2 0 7.8-3.2 8.1-7.4 3.7-49.5 45.3-88.6 95.8-88.6s92 39.1 95.8 88.6c.3 4.2 3.9 7.4 8.1 7.4H664a8 8 0 0 0 8-8.4C667.6 600.3 597.5 533 512 533zm128-112a48 48 0 1 0 96 0 48 48 0 1 0-96 0z\"/>\n</svg>\n",
    "<svg viewBox=\"0 0 200 200\" width=\"400\"  height=\"400\" xmlns=\"http://www.w3.org/2000/svg\">\n  <circle cx=\"100\" cy=\"100\" fill=\"yellow\" r=\"78\" stroke=\"black\" stroke-width=\"3\"/>\n  <g class=\"eyes\">\n    <circle cx=\"61\" cy=\"82\" r=\"12\"/>\n    <circle cx=\"127\" cy=\"82\" r=\"12\"/>\n  </g>\n  <path d=\"m136.81 116.53c.69 26.17-64.11 42-81.52-.73\" style=\"fill:none; stroke: black; stroke-width: 3;\"/>\n</svg>"
  ],
  "numDeployments": 1,
  "solcInputHash": "0ff6217c9b9805095920f95a5f1e1615",
  "bytecode": "0x60806040526040518060400160405280601a81526020017f646174613a696d6167652f7376672b786d6c3b6261736536342c000000000000815250600990816200004a9190620005d5565b503480156200005857600080fd5b506040516200351c3803806200351c83398181016040528101906200007e919062000820565b6040518060400160405280600981526020017f6469666665724e465400000000000000000000000000000000000000000000008152506040518060400160405280600481526020017f444e4654000000000000000000000000000000000000000000000000000000008152508160009081620000fb9190620005d5565b5080600190816200010d9190620005d5565b505050600060068190555062000129826200016460201b60201c565b60079081620001399190620005d5565b506200014b816200016460201b60201c565b600890816200015b9190620005d5565b50505062000ad3565b606060006200019f836040516020016200017f9190620008e7565b604051602081830303815290604052620001ce60201b62000cb31760201c565b9050600981604051602001620001b79291906200098f565b604051602081830303815290604052915050919050565b60606000825103620001f25760405180602001604052806000815250905062000356565b6000604051806060016040528060408152602001620034dc6040913990506000600360028551620002249190620009e6565b62000230919062000a50565b60046200023e919062000a88565b90506000602082620002519190620009e6565b67ffffffffffffffff8111156200026d576200026c62000366565b5b6040519080825280601f01601f191660200182016040528015620002a05781602001600182028036833780820191505090505b509050818152600183018586518101602084015b8183101562000311576003830192508251603f8160121c168501518253600182019150603f81600c1c168501518253600182019150603f8160061c168501518253600182019150603f8116850151825360018201915050620002b4565b6003895106600181146200032e57600281146200033f576200034a565b613d3d60f01b60028303526200034a565b603d60f81b60018303525b50505050508093505050505b919050565b600081519050919050565b7f4e487b7100000000000000000000000000000000000000000000000000000000600052604160045260246000fd5b7f4e487b7100000000000000000000000000000000000000000000000000000000600052602260045260246000fd5b60006002820490506001821680620003dd57607f821691505b602082108103620003f357620003f262000395565b5b50919050565b60008190508160005260206000209050919050565b60006020601f8301049050919050565b600082821b905092915050565b6000600883026200045d7fffffffffffffffffffffffffffffffffffffffffffffffffffffffffffffffff826200041e565b6200046986836200041e565b95508019841693508086168417925050509392505050565b6000819050919050565b6000819050919050565b6000620004b6620004b0620004aa8462000481565b6200048b565b62000481565b9050919050565b6000819050919050565b620004d28362000495565b620004ea620004e182620004bd565b8484546200042b565b825550505050565b600090565b62000501620004f2565b6200050e818484620004c7565b505050565b5b8181101562000536576200052a600082620004f7565b60018101905062000514565b5050565b601f82111562000585576200054f81620003f9565b6200055a846200040e565b810160208510156200056a578190505b6200058262000579856200040e565b83018262000513565b50505b505050565b600082821c905092915050565b6000620005aa600019846008026200058a565b1980831691505092915050565b6000620005c5838362000597565b9150826002028217905092915050565b620005e0826200035b565b67ffffffffffffffff811115620005fc57620005fb62000366565b5b620006088254620003c4565b620006158282856200053a565b600060209050601f8311600181146200064d576000841562000638578287015190505b620006448582620005b7565b865550620006b4565b601f1984166200065d86620003f9565b60005b82811015620006875784890151825560018201915060208501945060208101905062000660565b86831015620006a75784890151620006a3601f89168262000597565b8355505b6001600288020188555050505b505050505050565b6000604051905090565b600080fd5b600080fd5b600080fd5b600080fd5b6000601f19601f8301169050919050565b620006f682620006da565b810181811067ffffffffffffffff8211171562000718576200071762000366565b5b80604052505050565b60006200072d620006bc565b90506200073b8282620006eb565b919050565b600067ffffffffffffffff8211156200075e576200075d62000366565b5b6200076982620006da565b9050602081019050919050565b60005b838110156200079657808201518184015260208101905062000779565b60008484015250505050565b6000620007b9620007b38462000740565b62000721565b905082815260208101848484011115620007d857620007d7620006d5565b5b620007e584828562000776565b509392505050565b600082601f830112620008055762000804620006d0565b5b815162000817848260208601620007a2565b91505092915050565b600080604083850312156200083a5762000839620006c6565b5b600083015167ffffffffffffffff8111156200085b576200085a620006cb565b5b6200086985828601620007ed565b925050602083015167ffffffffffffffff8111156200088d576200088c620006cb565b5b6200089b85828601620007ed565b9150509250929050565b600081905092915050565b6000620008bd826200035b565b620008c98185620008a5565b9350620008db81856020860162000776565b80840191505092915050565b6000620008f58284620008b0565b915081905092915050565b600081546200090f81620003c4565b6200091b8186620008a5565b945060018216600081146200093957600181146200094f5762000986565b60ff198316865281151582028601935062000986565b6200095a85620003f9565b60005b838110156200097e578154818901526001820191506020810190506200095d565b838801955050505b50505092915050565b60006200099d828562000900565b9150620009ab8284620008b0565b91508190509392505050565b7f4e487b7100000000000000000000000000000000000000000000000000000000600052601160045260246000fd5b6000620009f38262000481565b915062000a008362000481565b925082820190508082111562000a1b5762000a1a620009b7565b5b92915050565b7f4e487b7100000000000000000000000000000000000000000000000000000000600052601260045260246000fd5b600062000a5d8262000481565b915062000a6a8362000481565b92508262000a7d5762000a7c62000a21565b5b828204905092915050565b600062000a958262000481565b915062000aa28362000481565b925082820262000ab28162000481565b9150828204841483151762000acc5762000acb620009b7565b5b5092915050565b6129f98062000ae36000396000f3fe608060405234801561001057600080fd5b50600436106101005760003560e01c806342842e0e11610097578063a22cb46511610066578063a22cb465146102ad578063b88d4fde146102c9578063c87b56dd146102e5578063e985e9c51461031557610100565b806342842e0e146102135780636352211e1461022f57806370a082311461025f57806395d89b411461028f57610100565b8063095ea7b3116100d3578063095ea7b31461019f57806323b872dd146101bb5780632877c6bc146101d757806328e3c96a146101f557610100565b806301ffc9a71461010557806306fdde03146101355780630788370314610153578063081812fc1461016f575b600080fd5b61011f600480360381019061011a9190611a6a565b610345565b60405161012c9190611ab2565b60405180910390f35b61013d610427565b60405161014a9190611b5d565b60405180910390f35b61016d60048036038101906101689190611bb5565b6104b9565b005b61018960048036038101906101849190611bb5565b6104f7565b6040516101969190611c23565b60405180910390f35b6101b960048036038101906101b49190611c6a565b61053d565b005b6101d560048036038101906101d09190611caa565b610654565b005b6101df6106b4565b6040516101ec9190611b5d565b60405180910390f35b6101fd610746565b60405161020a9190611b5d565b60405180910390f35b61022d60048036038101906102289190611caa565b6107d8565b005b61024960048036038101906102449190611bb5565b6107f8565b6040516102569190611c23565b60405180910390f35b61027960048036038101906102749190611cfd565b61087e565b6040516102869190611d39565b60405180910390f35b610297610935565b6040516102a49190611b5d565b60405180910390f35b6102c760048036038101906102c29190611d80565b6109c7565b005b6102e360048036038101906102de9190611ef5565b6109dd565b005b6102ff60048036038101906102fa9190611bb5565b610a3f565b60405161030c9190611b5d565b60405180910390f35b61032f600480360381019061032a9190611f78565b610c1f565b60405161033c9190611ab2565b60405180910390f35b60007f80ac58cd000000000000000000000000000000000000000000000000000000007bffffffffffffffffffffffffffffffffffffffffffffffffffffffff1916827bffffffffffffffffffffffffffffffffffffffffffffffffffffffff1916148061041057507f5b5e139f000000000000000000000000000000000000000000000000000000007bffffffffffffffffffffffffffffffffffffffffffffffffffffffff1916827bffffffffffffffffffffffffffffffffffffffffffffffffffffffff1916145b80610420575061041f82610e2b565b5b9050919050565b60606000805461043690611fe7565b80601f016020809104026020016040519081016040528092919081815260200182805461046290611fe7565b80156104af5780601f10610484576101008083540402835291602001916104af565b820191906000526020600020905b81548152906001019060200180831161049257829003601f168201915b5050505050905090565b80600a60006006548152602001908152602001600020819055506104df33600654610e95565b60016006546104ee9190612047565b60068190555050565b600061050282610eb3565b6004600083815260200190815260200160002060009054906101000a900473ffffffffffffffffffffffffffffffffffffffff169050919050565b6000610548826107f8565b90508073ffffffffffffffffffffffffffffffffffffffff168373ffffffffffffffffffffffffffffffffffffffff16036105b8576040517f08c379a00000000000000000000000000000000000000000000000000000000081526004016105af906120ed565b60405180910390fd5b8073ffffffffffffffffffffffffffffffffffffffff166105d7610efe565b73ffffffffffffffffffffffffffffffffffffffff161480610606575061060581610600610efe565b610c1f565b5b610645576040517f08c379a000000000000000000000000000000000000000000000000000000000815260040161063c9061217f565b60405180910390fd5b61064f8383610f06565b505050565b61066561065f610efe565b82610fbf565b6106a4576040517f08c379a000000000000000000000000000000000000000000000000000000000815260040161069b90612211565b60405180910390fd5b6106af838383611054565b505050565b6060600880546106c390611fe7565b80601f01602080910402602001604051908101604052809291908181526020018280546106ef90611fe7565b801561073c5780601f106107115761010080835404028352916020019161073c565b820191906000526020600020905b81548152906001019060200180831161071f57829003601f168201915b5050505050905090565b60606007805461075590611fe7565b80601f016020809104026020016040519081016040528092919081815260200182805461078190611fe7565b80156107ce5780601f106107a3576101008083540402835291602001916107ce565b820191906000526020600020905b8154815290600101906020018083116107b157829003601f168201915b5050505050905090565b6107f3838383604051806020016040528060008152506109dd565b505050565b6000806108048361134d565b9050600073ffffffffffffffffffffffffffffffffffffffff168173ffffffffffffffffffffffffffffffffffffffff1603610875576040517f08c379a000000000000000000000000000000000000000000000000000000000815260040161086c9061227d565b60405180910390fd5b80915050919050565b60008073ffffffffffffffffffffffffffffffffffffffff168273ffffffffffffffffffffffffffffffffffffffff16036108ee576040517f08c379a00000000000000000000000000000000000000000000000000000000081526004016108e59061230f565b60405180910390fd5b600360008373ffffffffffffffffffffffffffffffffffffffff1673ffffffffffffffffffffffffffffffffffffffff168152602001908152602001600020549050919050565b60606001805461094490611fe7565b80601f016020809104026020016040519081016040528092919081815260200182805461097090611fe7565b80156109bd5780601f10610992576101008083540402835291602001916109bd565b820191906000526020600020905b8154815290600101906020018083116109a057829003601f168201915b5050505050905090565b6109d96109d2610efe565b838361138a565b5050565b6109ee6109e8610efe565b83610fbf565b610a2d576040517f08c379a0000000000000000000000000000000000000000000000000000000008152600401610a2490612211565b60405180910390fd5b610a39848484846114f6565b50505050565b6060610a4a82611552565b610a80576040517fdfff88d500000000000000000000000000000000000000000000000000000000815260040160405180910390fd5b600060019050600060078054610a9590611fe7565b80601f0160208091040260200160405190810160405280929190818152602001828054610ac190611fe7565b8015610b0e5780601f10610ae357610100808354040283529160200191610b0e565b820191906000526020600020905b815481529060010190602001808311610af157829003601f168201915b5050505050905081600a60008681526020019081526020016000205410610bbd5760088054610b3c90611fe7565b80601f0160208091040260200160405190810160405280929190818152602001828054610b6890611fe7565b8015610bb55780601f10610b8a57610100808354040283529160200191610bb5565b820191906000526020600020905b815481529060010190602001808311610b9857829003601f168201915b505050505090505b610bc5611593565b610bf6610bd0610427565b83604051602001610be292919061249b565b604051602081830303815290604052610cb3565b604051602001610c079291906124e0565b60405160208183030381529060405292505050919050565b6000600560008473ffffffffffffffffffffffffffffffffffffffff1673ffffffffffffffffffffffffffffffffffffffff16815260200190815260200160002060008373ffffffffffffffffffffffffffffffffffffffff1673ffffffffffffffffffffffffffffffffffffffff16815260200190815260200160002060009054906101000a900460ff16905092915050565b60606000825103610cd557604051806020016040528060008152509050610e26565b60006040518060600160405280604081526020016129846040913990506000600360028551610d049190612047565b610d0e9190612533565b6004610d1a9190612564565b90506000602082610d2b9190612047565b67ffffffffffffffff811115610d4457610d43611dca565b5b6040519080825280601f01601f191660200182016040528015610d765781602001600182028036833780820191505090505b509050818152600183018586518101602084015b81831015610de5576003830192508251603f8160121c168501518253600182019150603f81600c1c168501518253600182019150603f8160061c168501518253600182019150603f8116850151825360018201915050610d8a565b600389510660018114610dff5760028114610e0f57610e1a565b613d3d60f01b6002830352610e1a565b603d60f81b60018303525b50505050508093505050505b919050565b60007f01ffc9a7000000000000000000000000000000000000000000000000000000007bffffffffffffffffffffffffffffffffffffffffffffffffffffffff1916827bffffffffffffffffffffffffffffffffffffffffffffffffffffffff1916149050919050565b610eaf8282604051806020016040528060008152506115d0565b5050565b610ebc81611552565b610efb576040517f08c379a0000000000000000000000000000000000000000000000000000000008152600401610ef29061227d565b60405180910390fd5b50565b600033905090565b816004600083815260200190815260200160002060006101000a81548173ffffffffffffffffffffffffffffffffffffffff021916908373ffffffffffffffffffffffffffffffffffffffff160217905550808273ffffffffffffffffffffffffffffffffffffffff16610f79836107f8565b73ffffffffffffffffffffffffffffffffffffffff167f8c5be1e5ebec7d5bd14f71427d1e84f3dd0314c0f7b2291e5b200ac8c7c3b92560405160405180910390a45050565b600080610fcb836107f8565b90508073ffffffffffffffffffffffffffffffffffffffff168473ffffffffffffffffffffffffffffffffffffffff16148061100d575061100c8185610c1f565b5b8061104b57508373ffffffffffffffffffffffffffffffffffffffff16611033846104f7565b73ffffffffffffffffffffffffffffffffffffffff16145b91505092915050565b8273ffffffffffffffffffffffffffffffffffffffff16611074826107f8565b73ffffffffffffffffffffffffffffffffffffffff16146110ca576040517f08c379a00000000000000000000000000000000000000000000000000000000081526004016110c190612618565b60405180910390fd5b600073ffffffffffffffffffffffffffffffffffffffff168273ffffffffffffffffffffffffffffffffffffffff1603611139576040517f08c379a0000000000000000000000000000000000000000000000000000000008152600401611130906126aa565b60405180910390fd5b611146838383600161162b565b8273ffffffffffffffffffffffffffffffffffffffff16611166826107f8565b73ffffffffffffffffffffffffffffffffffffffff16146111bc576040517f08c379a00000000000000000000000000000000000000000000000000000000081526004016111b390612618565b60405180910390fd5b6004600082815260200190815260200160002060006101000a81549073ffffffffffffffffffffffffffffffffffffffff02191690556001600360008573ffffffffffffffffffffffffffffffffffffffff1673ffffffffffffffffffffffffffffffffffffffff168152602001908152602001600020600082825403925050819055506001600360008473ffffffffffffffffffffffffffffffffffffffff1673ffffffffffffffffffffffffffffffffffffffff16815260200190815260200160002060008282540192505081905550816002600083815260200190815260200160002060006101000a81548173ffffffffffffffffffffffffffffffffffffffff021916908373ffffffffffffffffffffffffffffffffffffffff160217905550808273ffffffffffffffffffffffffffffffffffffffff168473ffffffffffffffffffffffffffffffffffffffff167fddf252ad1be2c89b69c2b068fc378daa952ba7f163c4a11628f55a4df523b3ef60405160405180910390a46113488383836001611631565b505050565b60006002600083815260200190815260200160002060009054906101000a900473ffffffffffffffffffffffffffffffffffffffff169050919050565b8173ffffffffffffffffffffffffffffffffffffffff168373ffffffffffffffffffffffffffffffffffffffff16036113f8576040517f08c379a00000000000000000000000000000000000000000000000000000000081526004016113ef90612716565b60405180910390fd5b80600560008573ffffffffffffffffffffffffffffffffffffffff1673ffffffffffffffffffffffffffffffffffffffff16815260200190815260200160002060008473ffffffffffffffffffffffffffffffffffffffff1673ffffffffffffffffffffffffffffffffffffffff16815260200190815260200160002060006101000a81548160ff0219169083151502179055508173ffffffffffffffffffffffffffffffffffffffff168373ffffffffffffffffffffffffffffffffffffffff167f17307eab39ab6107e8899845ad3d59bd9653f200f220920489ca2b5937696c31836040516114e99190611ab2565b60405180910390a3505050565b611501848484611054565b61150d84848484611637565b61154c576040517f08c379a0000000000000000000000000000000000000000000000000000000008152600401611543906127a8565b60405180910390fd5b50505050565b60008073ffffffffffffffffffffffffffffffffffffffff166115748361134d565b73ffffffffffffffffffffffffffffffffffffffff1614159050919050565b60606040518060400160405280601d81526020017f646174613a6170706c69636174696f6e2f6a736f6e3b6261736536342c000000815250905090565b6115da83836117be565b6115e76000848484611637565b611626576040517f08c379a000000000000000000000000000000000000000000000000000000000815260040161161d906127a8565b60405180910390fd5b505050565b50505050565b50505050565b60006116588473ffffffffffffffffffffffffffffffffffffffff166119db565b156117b1578373ffffffffffffffffffffffffffffffffffffffff1663150b7a02611681610efe565b8786866040518563ffffffff1660e01b81526004016116a3949392919061281d565b6020604051808303816000875af19250505080156116df57506040513d601f19601f820116820180604052508101906116dc919061287e565b60015b611761573d806000811461170f576040519150601f19603f3d011682016040523d82523d6000602084013e611714565b606091505b506000815103611759576040517f08c379a0000000000000000000000000000000000000000000000000000000008152600401611750906127a8565b60405180910390fd5b805181602001fd5b63150b7a0260e01b7bffffffffffffffffffffffffffffffffffffffffffffffffffffffff1916817bffffffffffffffffffffffffffffffffffffffffffffffffffffffff1916149150506117b6565b600190505b949350505050565b600073ffffffffffffffffffffffffffffffffffffffff168273ffffffffffffffffffffffffffffffffffffffff160361182d576040517f08c379a0000000000000000000000000000000000000000000000000000000008152600401611824906128f7565b60405180910390fd5b61183681611552565b15611876576040517f08c379a000000000000000000000000000000000000000000000000000000000815260040161186d90612963565b60405180910390fd5b61188460008383600161162b565b61188d81611552565b156118cd576040517f08c379a00000000000000000000000000000000000000000000000000000000081526004016118c490612963565b60405180910390fd5b6001600360008473ffffffffffffffffffffffffffffffffffffffff1673ffffffffffffffffffffffffffffffffffffffff16815260200190815260200160002060008282540192505081905550816002600083815260200190815260200160002060006101000a81548173ffffffffffffffffffffffffffffffffffffffff021916908373ffffffffffffffffffffffffffffffffffffffff160217905550808273ffffffffffffffffffffffffffffffffffffffff16600073ffffffffffffffffffffffffffffffffffffffff167fddf252ad1be2c89b69c2b068fc378daa952ba7f163c4a11628f55a4df523b3ef60405160405180910390a46119d7600083836001611631565b5050565b6000808273ffffffffffffffffffffffffffffffffffffffff163b119050919050565b6000604051905090565b600080fd5b600080fd5b60007fffffffff0000000000000000000000000000000000000000000000000000000082169050919050565b611a4781611a12565b8114611a5257600080fd5b50565b600081359050611a6481611a3e565b92915050565b600060208284031215611a8057611a7f611a08565b5b6000611a8e84828501611a55565b91505092915050565b60008115159050919050565b611aac81611a97565b82525050565b6000602082019050611ac76000830184611aa3565b92915050565b600081519050919050565b600082825260208201905092915050565b60005b83811015611b07578082015181840152602081019050611aec565b60008484015250505050565b6000601f19601f8301169050919050565b6000611b2f82611acd565b611b398185611ad8565b9350611b49818560208601611ae9565b611b5281611b13565b840191505092915050565b60006020820190508181036000830152611b778184611b24565b905092915050565b6000819050919050565b611b9281611b7f565b8114611b9d57600080fd5b50565b600081359050611baf81611b89565b92915050565b600060208284031215611bcb57611bca611a08565b5b6000611bd984828501611ba0565b91505092915050565b600073ffffffffffffffffffffffffffffffffffffffff82169050919050565b6000611c0d82611be2565b9050919050565b611c1d81611c02565b82525050565b6000602082019050611c386000830184611c14565b92915050565b611c4781611c02565b8114611c5257600080fd5b50565b600081359050611c6481611c3e565b92915050565b60008060408385031215611c8157611c80611a08565b5b6000611c8f85828601611c55565b9250506020611ca085828601611ba0565b9150509250929050565b600080600060608486031215611cc357611cc2611a08565b5b6000611cd186828701611c55565b9350506020611ce286828701611c55565b9250506040611cf386828701611ba0565b9150509250925092565b600060208284031215611d1357611d12611a08565b5b6000611d2184828501611c55565b91505092915050565b611d3381611b7f565b82525050565b6000602082019050611d4e6000830184611d2a565b92915050565b611d5d81611a97565b8114611d6857600080fd5b50565b600081359050611d7a81611d54565b92915050565b60008060408385031215611d9757611d96611a08565b5b6000611da585828601611c55565b9250506020611db685828601611d6b565b9150509250929050565b600080fd5b600080fd5b7f4e487b7100000000000000000000000000000000000000000000000000000000600052604160045260246000fd5b611e0282611b13565b810181811067ffffffffffffffff82111715611e2157611e20611dca565b5b80604052505050565b6000611e346119fe565b9050611e408282611df9565b919050565b600067ffffffffffffffff821115611e6057611e5f611dca565b5b611e6982611b13565b9050602081019050919050565b82818337600083830152505050565b6000611e98611e9384611e45565b611e2a565b905082815260208101848484011115611eb457611eb3611dc5565b5b611ebf848285611e76565b509392505050565b600082601f830112611edc57611edb611dc0565b5b8135611eec848260208601611e85565b91505092915050565b60008060008060808587031215611f0f57611f0e611a08565b5b6000611f1d87828801611c55565b9450506020611f2e87828801611c55565b9350506040611f3f87828801611ba0565b925050606085013567ffffffffffffffff811115611f6057611f5f611a0d565b5b611f6c87828801611ec7565b91505092959194509250565b60008060408385031215611f8f57611f8e611a08565b5b6000611f9d85828601611c55565b9250506020611fae85828601611c55565b9150509250929050565b7f4e487b7100000000000000000000000000000000000000000000000000000000600052602260045260246000fd5b60006002820490506001821680611fff57607f821691505b60208210810361201257612011611fb8565b5b50919050565b7f4e487b7100000000000000000000000000000000000000000000000000000000600052601160045260246000fd5b600061205282611b7f565b915061205d83611b7f565b925082820190508082111561207557612074612018565b5b92915050565b7f4552433732313a20617070726f76616c20746f2063757272656e74206f776e6560008201527f7200000000000000000000000000000000000000000000000000000000000000602082015250565b60006120d7602183611ad8565b91506120e28261207b565b604082019050919050565b60006020820190508181036000830152612106816120ca565b9050919050565b7f4552433732313a20617070726f76652063616c6c6572206973206e6f7420746f60008201527f6b656e206f776e6572206f7220617070726f76656420666f7220616c6c000000602082015250565b6000612169603d83611ad8565b91506121748261210d565b604082019050919050565b600060208201905081810360008301526121988161215c565b9050919050565b7f4552433732313a2063616c6c6572206973206e6f7420746f6b656e206f776e6560008201527f72206f7220617070726f76656400000000000000000000000000000000000000602082015250565b60006121fb602d83611ad8565b91506122068261219f565b604082019050919050565b6000602082019050818103600083015261222a816121ee565b9050919050565b7f4552433732313a20696e76616c696420746f6b656e2049440000000000000000600082015250565b6000612267601883611ad8565b915061227282612231565b602082019050919050565b600060208201905081810360008301526122968161225a565b9050919050565b7f4552433732313a2061646472657373207a65726f206973206e6f74206120766160008201527f6c6964206f776e65720000000000000000000000000000000000000000000000602082015250565b60006122f9602983611ad8565b91506123048261229d565b604082019050919050565b60006020820190508181036000830152612328816122ec565b9050919050565b600081905092915050565b7f7b226e616d65223a220000000000000000000000000000000000000000000000600082015250565b600061237060098361232f565b915061237b8261233a565b600982019050919050565b600061239182611acd565b61239b818561232f565b93506123ab818560208601611ae9565b80840191505092915050565b7f222c226465736372697074696f6e223a22476f6f64204e465473222c22696d6160008201527f6765223a22000000000000000000000000000000000000000000000000000000602082015250565b600061241360258361232f565b915061241e826123b7565b602582019050919050565b7f222c2261747472696275746573223a5b7b2274726169745f74797065223a226360008201527f7574656e657373222c2276616c7565223a3130307d5d7d000000000000000000602082015250565b600061248560378361232f565b915061249082612429565b603782019050919050565b60006124a682612363565b91506124b28285612386565b91506124bd82612406565b91506124c98284612386565b91506124d482612478565b91508190509392505050565b60006124ec8285612386565b91506124f88284612386565b91508190509392505050565b7f4e487b7100000000000000000000000000000000000000000000000000000000600052601260045260246000fd5b600061253e82611b7f565b915061254983611b7f565b92508261255957612558612504565b5b828204905092915050565b600061256f82611b7f565b915061257a83611b7f565b925082820261258881611b7f565b9150828204841483151761259f5761259e612018565b5b5092915050565b7f4552433732313a207472616e736665722066726f6d20696e636f72726563742060008201527f6f776e6572000000000000000000000000000000000000000000000000000000602082015250565b6000612602602583611ad8565b915061260d826125a6565b604082019050919050565b60006020820190508181036000830152612631816125f5565b9050919050565b7f4552433732313a207472616e7366657220746f20746865207a65726f2061646460008201527f7265737300000000000000000000000000000000000000000000000000000000602082015250565b6000612694602483611ad8565b915061269f82612638565b604082019050919050565b600060208201905081810360008301526126c381612687565b9050919050565b7f4552433732313a20617070726f766520746f2063616c6c657200000000000000600082015250565b6000612700601983611ad8565b915061270b826126ca565b602082019050919050565b6000602082019050818103600083015261272f816126f3565b9050919050565b7f4552433732313a207472616e7366657220746f206e6f6e20455243373231526560008201527f63656976657220696d706c656d656e7465720000000000000000000000000000602082015250565b6000612792603283611ad8565b915061279d82612736565b604082019050919050565b600060208201905081810360008301526127c181612785565b9050919050565b600081519050919050565b600082825260208201905092915050565b60006127ef826127c8565b6127f981856127d3565b9350612809818560208601611ae9565b61281281611b13565b840191505092915050565b60006080820190506128326000830187611c14565b61283f6020830186611c14565b61284c6040830185611d2a565b818103606083015261285e81846127e4565b905095945050505050565b60008151905061287881611a3e565b92915050565b60006020828403121561289457612893611a08565b5b60006128a284828501612869565b91505092915050565b7f4552433732313a206d696e7420746f20746865207a65726f2061646472657373600082015250565b60006128e1602083611ad8565b91506128ec826128ab565b602082019050919050565b60006020820190508181036000830152612910816128d4565b9050919050565b7f4552433732313a20746f6b656e20616c7265616479206d696e74656400000000600082015250565b600061294d601c83611ad8565b915061295882612917565b602082019050919050565b6000602082019050818103600083015261297c81612940565b905091905056fe4142434445464748494a4b4c4d4e4f505152535455565758595a6162636465666768696a6b6c6d6e6f707172737475767778797a303132333435363738392b2fa26469706673582212202e3d06dd471ec855662dca92aac35638a5cec7e29547829322e531c57c5a01f364736f6c634300081100334142434445464748494a4b4c4d4e4f505152535455565758595a6162636465666768696a6b6c6d6e6f707172737475767778797a303132333435363738392b2f",
  "devdoc": {
    "kind": "dev",
    "methods": {
      "approve(address,uint256)": {
        "details": "See {IERC721-approve}."
      },
      "balanceOf(address)": {
        "details": "See {IERC721-balanceOf}."
      },
      "getApproved(uint256)": {
        "details": "See {IERC721-getApproved}."
      },
      "isApprovedForAll(address,address)": {
        "details": "See {IERC721-isApprovedForAll}."
      },
      "name()": {
        "details": "See {IERC721Metadata-name}."
      },
      "ownerOf(uint256)": {
        "details": "See {IERC721-ownerOf}."
      },
      "safeTransferFrom(address,address,uint256)": {
        "details": "See {IERC721-safeTransferFrom}."
      },
      "safeTransferFrom(address,address,uint256,bytes)": {
        "details": "See {IERC721-safeTransferFrom}."
      },
      "setApprovalForAll(address,bool)": {
        "details": "See {IERC721-setApprovalForAll}."
      },
      "supportsInterface(bytes4)": {
        "details": "See {IERC165-supportsInterface}."
      },
      "symbol()": {
        "details": "See {IERC721Metadata-symbol}."
      },
      "tokenURI(uint256)": {
        "details": "See {IERC721Metadata-tokenURI}."
      },
      "transferFrom(address,address,uint256)": {
        "details": "See {IERC721-transferFrom}."
      }
    },
    "version": 1
  },
  "userdoc": {
    "kind": "user",
    "methods": {},
    "version": 1
  },
  "storageLayout": {
    "storage": [
      {
        "astId": 25,
        "contract": "contracts/differNFT.sol:DifferNFT",
        "label": "_name",
        "offset": 0,
        "slot": "0",
        "type": "t_string_storage"
      },
      {
        "astId": 27,
        "contract": "contracts/differNFT.sol:DifferNFT",
        "label": "_symbol",
        "offset": 0,
        "slot": "1",
        "type": "t_string_storage"
      },
      {
        "astId": 31,
        "contract": "contracts/differNFT.sol:DifferNFT",
        "label": "_owners",
        "offset": 0,
        "slot": "2",
        "type": "t_mapping(t_uint256,t_address)"
      },
      {
        "astId": 35,
        "contract": "contracts/differNFT.sol:DifferNFT",
        "label": "_balances",
        "offset": 0,
        "slot": "3",
        "type": "t_mapping(t_address,t_uint256)"
      },
      {
        "astId": 39,
        "contract": "contracts/differNFT.sol:DifferNFT",
        "label": "_tokenApprovals",
        "offset": 0,
        "slot": "4",
        "type": "t_mapping(t_uint256,t_address)"
      },
      {
        "astId": 45,
        "contract": "contracts/differNFT.sol:DifferNFT",
        "label": "_operatorApprovals",
        "offset": 0,
        "slot": "5",
        "type": "t_mapping(t_address,t_mapping(t_address,t_bool))"
      },
      {
        "astId": 2640,
        "contract": "contracts/differNFT.sol:DifferNFT",
        "label": "s_tokenId",
        "offset": 0,
        "slot": "6",
        "type": "t_uint256"
      },
      {
        "astId": 2642,
        "contract": "contracts/differNFT.sol:DifferNFT",
        "label": "s_LowPriceNFT",
        "offset": 0,
        "slot": "7",
        "type": "t_string_storage"
      },
      {
        "astId": 2644,
        "contract": "contracts/differNFT.sol:DifferNFT",
        "label": "s_HighPriceNFT",
        "offset": 0,
        "slot": "8",
        "type": "t_string_storage"
      },
      {
        "astId": 2647,
        "contract": "contracts/differNFT.sol:DifferNFT",
        "label": "baseURI",
        "offset": 0,
        "slot": "9",
        "type": "t_string_storage"
      },
      {
        "astId": 2651,
        "contract": "contracts/differNFT.sol:DifferNFT",
        "label": "s_tokenIdToValue",
        "offset": 0,
        "slot": "10",
        "type": "t_mapping(t_uint256,t_uint256)"
      }
    ],
    "types": {
      "t_address": {
        "encoding": "inplace",
        "label": "address",
        "numberOfBytes": "20"
      },
      "t_bool": {
        "encoding": "inplace",
        "label": "bool",
        "numberOfBytes": "1"
      },
      "t_mapping(t_address,t_bool)": {
        "encoding": "mapping",
        "key": "t_address",
        "label": "mapping(address => bool)",
        "numberOfBytes": "32",
        "value": "t_bool"
      },
      "t_mapping(t_address,t_mapping(t_address,t_bool))": {
        "encoding": "mapping",
        "key": "t_address",
        "label": "mapping(address => mapping(address => bool))",
        "numberOfBytes": "32",
        "value": "t_mapping(t_address,t_bool)"
      },
      "t_mapping(t_address,t_uint256)": {
        "encoding": "mapping",
        "key": "t_address",
        "label": "mapping(address => uint256)",
        "numberOfBytes": "32",
        "value": "t_uint256"
      },
      "t_mapping(t_uint256,t_address)": {
        "encoding": "mapping",
        "key": "t_uint256",
        "label": "mapping(uint256 => address)",
        "numberOfBytes": "32",
        "value": "t_address"
      },
      "t_mapping(t_uint256,t_uint256)": {
        "encoding": "mapping",
        "key": "t_uint256",
        "label": "mapping(uint256 => uint256)",
        "numberOfBytes": "32",
        "value": "t_uint256"
      },
      "t_string_storage": {
        "encoding": "bytes",
        "label": "string",
        "numberOfBytes": "32"
      },
      "t_uint256": {
        "encoding": "inplace",
        "label": "uint256",
        "numberOfBytes": "32"
      }
    }
  }
}