{
  "address": "0x7270f6aD01EA8C767F1413F7CC3c1eD937f78D70",
  "abi": [
    {
      "inputs": [
        {
          "internalType": "address",
          "name": "_vrfCoordinator",
          "type": "address"
        },
        {
          "internalType": "bytes32",
          "name": "keyHash",
          "type": "bytes32"
        },
        {
          "internalType": "uint64",
          "name": "subId",
          "type": "uint64"
        },
        {
          "internalType": "uint32",
          "name": "callbackGasLimit",
          "type": "uint32"
        },
        {
          "internalType": "string[3]",
          "name": "_NFT_URI",
          "type": "string[3]"
        }
      ],
      "stateMutability": "nonpayable",
      "type": "constructor"
    },
    {
      "inputs": [
        {
          "internalType": "address",
          "name": "have",
          "type": "address"
        },
        {
          "internalType": "address",
          "name": "want",
          "type": "address"
        }
      ],
      "name": "OnlyCoordinatorCanFulfill",
      "type": "error"
    },
    {
      "inputs": [],
      "name": "RandomNFT_cannotBeTheZeroAddress",
      "type": "error"
    },
    {
      "inputs": [],
      "name": "RandomNFT_notEnough",
      "type": "error"
    },
    {
      "inputs": [],
      "name": "RandomNFT_nothingToWithdraw",
      "type": "error"
    },
    {
      "inputs": [],
      "name": "RandomNFT_outOfBounds",
      "type": "error"
    },
    {
      "inputs": [],
      "name": "RandomNFT_withdrawFailed",
      "type": "error"
    },
    {
      "anonymous": false,
      "inputs": [
        {
          "indexed": true,
          "internalType": "address",
          "name": "owner",
          "type": "address"
        },
        {
          "indexed": true,
          "internalType": "address",
          "name": "approved",
          "type": "address"
        },
        {
          "indexed": true,
          "internalType": "uint256",
          "name": "tokenId",
          "type": "uint256"
        }
      ],
      "name": "Approval",
      "type": "event"
    },
    {
      "anonymous": false,
      "inputs": [
        {
          "indexed": true,
          "internalType": "address",
          "name": "owner",
          "type": "address"
        },
        {
          "indexed": true,
          "internalType": "address",
          "name": "operator",
          "type": "address"
        },
        {
          "indexed": false,
          "internalType": "bool",
          "name": "approved",
          "type": "bool"
        }
      ],
      "name": "ApprovalForAll",
      "type": "event"
    },
    {
      "anonymous": false,
      "inputs": [
        {
          "indexed": true,
          "internalType": "uint256",
          "name": "requestId",
          "type": "uint256"
        },
        {
          "indexed": true,
          "internalType": "address",
          "name": "mintRequester",
          "type": "address"
        }
      ],
      "name": "MINTRequested",
      "type": "event"
    },
    {
      "anonymous": false,
      "inputs": [
        {
          "indexed": true,
          "internalType": "address",
          "name": "requesterAddress",
          "type": "address"
        },
        {
          "indexed": true,
          "internalType": "uint256",
          "name": "requestId",
          "type": "uint256"
        }
      ],
      "name": "NFT_Request_Fulfiled",
      "type": "event"
    },
    {
      "anonymous": false,
      "inputs": [
        {
          "indexed": true,
          "internalType": "address",
          "name": "previousOwner",
          "type": "address"
        },
        {
          "indexed": true,
          "internalType": "address",
          "name": "newOwner",
          "type": "address"
        }
      ],
      "name": "OwnershipTransferred",
      "type": "event"
    },
    {
      "anonymous": false,
      "inputs": [
        {
          "indexed": false,
          "internalType": "address",
          "name": "account",
          "type": "address"
        }
      ],
      "name": "Paused",
      "type": "event"
    },
    {
      "anonymous": false,
      "inputs": [
        {
          "indexed": true,
          "internalType": "address",
          "name": "from",
          "type": "address"
        },
        {
          "indexed": true,
          "internalType": "address",
          "name": "to",
          "type": "address"
        },
        {
          "indexed": true,
          "internalType": "uint256",
          "name": "tokenId",
          "type": "uint256"
        }
      ],
      "name": "Transfer",
      "type": "event"
    },
    {
      "anonymous": false,
      "inputs": [
        {
          "indexed": false,
          "internalType": "address",
          "name": "account",
          "type": "address"
        }
      ],
      "name": "Unpaused",
      "type": "event"
    },
    {
      "inputs": [
        {
          "internalType": "uint256",
          "name": "mintFee",
          "type": "uint256"
        }
      ],
      "name": "Mint",
      "outputs": [],
      "stateMutability": "payable",
      "type": "function"
    },
    {
      "inputs": [
        {
          "internalType": "address",
          "name": "to",
          "type": "address"
        },
        {
          "internalType": "uint256",
          "name": "tokenId",
          "type": "uint256"
        }
      ],
      "name": "approve",
      "outputs": [],
      "stateMutability": "nonpayable",
      "type": "function"
    },
    {
      "inputs": [
        {
          "internalType": "address",
          "name": "owner",
          "type": "address"
        }
      ],
      "name": "balanceOf",
      "outputs": [
        {
          "internalType": "uint256",
          "name": "",
          "type": "uint256"
        }
      ],
      "stateMutability": "view",
      "type": "function"
    },
    {
      "inputs": [
        {
          "internalType": "uint256",
          "name": "tokenId",
          "type": "uint256"
        }
      ],
      "name": "getApproved",
      "outputs": [
        {
          "internalType": "address",
          "name": "",
          "type": "address"
        }
      ],
      "stateMutability": "view",
      "type": "function"
    },
    {
      "inputs": [
        {
          "internalType": "uint256",
          "name": "moddedValue",
          "type": "uint256"
        }
      ],
      "name": "getProbability",
      "outputs": [
        {
          "internalType": "enum RandomNFT.NFTS",
          "name": "",
          "type": "uint8"
        }
      ],
      "stateMutability": "pure",
      "type": "function"
    },
    {
      "inputs": [
        {
          "internalType": "uint256",
          "name": "URI_INDEX",
          "type": "uint256"
        }
      ],
      "name": "getTokenURI",
      "outputs": [
        {
          "internalType": "string",
          "name": "",
          "type": "string"
        }
      ],
      "stateMutability": "view",
      "type": "function"
    },
    {
      "inputs": [
        {
          "internalType": "address",
          "name": "owner",
          "type": "address"
        },
        {
          "internalType": "address",
          "name": "operator",
          "type": "address"
        }
      ],
      "name": "isApprovedForAll",
      "outputs": [
        {
          "internalType": "bool",
          "name": "",
          "type": "bool"
        }
      ],
      "stateMutability": "view",
      "type": "function"
    },
    {
      "inputs": [],
      "name": "name",
      "outputs": [
        {
          "internalType": "string",
          "name": "",
          "type": "string"
        }
      ],
      "stateMutability": "view",
      "type": "function"
    },
    {
      "inputs": [],
      "name": "owner",
      "outputs": [
        {
          "internalType": "address",
          "name": "",
          "type": "address"
        }
      ],
      "stateMutability": "view",
      "type": "function"
    },
    {
      "inputs": [
        {
          "internalType": "uint256",
          "name": "tokenId",
          "type": "uint256"
        }
      ],
      "name": "ownerOf",
      "outputs": [
        {
          "internalType": "address",
          "name": "",
          "type": "address"
        }
      ],
      "stateMutability": "view",
      "type": "function"
    },
    {
      "inputs": [],
      "name": "pause",
      "outputs": [],
      "stateMutability": "nonpayable",
      "type": "function"
    },
    {
      "inputs": [],
      "name": "paused",
      "outputs": [
        {
          "internalType": "bool",
          "name": "",
          "type": "bool"
        }
      ],
      "stateMutability": "view",
      "type": "function"
    },
    {
      "inputs": [],
      "name": "probabilityArr",
      "outputs": [
        {
          "internalType": "uint256[3]",
          "name": "",
          "type": "uint256[3]"
        }
      ],
      "stateMutability": "pure",
      "type": "function"
    },
    {
      "inputs": [
        {
          "internalType": "uint256",
          "name": "requestId",
          "type": "uint256"
        },
        {
          "internalType": "uint256[]",
          "name": "randomWords",
          "type": "uint256[]"
        }
      ],
      "name": "rawFulfillRandomWords",
      "outputs": [],
      "stateMutability": "nonpayable",
      "type": "function"
    },
    {
      "inputs": [],
      "name": "renounceOwnership",
      "outputs": [],
      "stateMutability": "nonpayable",
      "type": "function"
    },
    {
      "inputs": [
        {
          "internalType": "address",
          "name": "from",
          "type": "address"
        },
        {
          "internalType": "address",
          "name": "to",
          "type": "address"
        },
        {
          "internalType": "uint256",
          "name": "tokenId",
          "type": "uint256"
        }
      ],
      "name": "safeTransferFrom",
      "outputs": [],
      "stateMutability": "nonpayable",
      "type": "function"
    },
    {
      "inputs": [
        {
          "internalType": "address",
          "name": "from",
          "type": "address"
        },
        {
          "internalType": "address",
          "name": "to",
          "type": "address"
        },
        {
          "internalType": "uint256",
          "name": "tokenId",
          "type": "uint256"
        },
        {
          "internalType": "bytes",
          "name": "data",
          "type": "bytes"
        }
      ],
      "name": "safeTransferFrom",
      "outputs": [],
      "stateMutability": "nonpayable",
      "type": "function"
    },
    {
      "inputs": [
        {
          "internalType": "address",
          "name": "operator",
          "type": "address"
        },
        {
          "internalType": "bool",
          "name": "approved",
          "type": "bool"
        }
      ],
      "name": "setApprovalForAll",
      "outputs": [],
      "stateMutability": "nonpayable",
      "type": "function"
    },
    {
      "inputs": [
        {
          "internalType": "bytes4",
          "name": "interfaceId",
          "type": "bytes4"
        }
      ],
      "name": "supportsInterface",
      "outputs": [
        {
          "internalType": "bool",
          "name": "",
          "type": "bool"
        }
      ],
      "stateMutability": "view",
      "type": "function"
    },
    {
      "inputs": [],
      "name": "symbol",
      "outputs": [
        {
          "internalType": "string",
          "name": "",
          "type": "string"
        }
      ],
      "stateMutability": "view",
      "type": "function"
    },
    {
      "inputs": [
        {
          "internalType": "uint256",
          "name": "tokenId",
          "type": "uint256"
        }
      ],
      "name": "tokenURI",
      "outputs": [
        {
          "internalType": "string",
          "name": "",
          "type": "string"
        }
      ],
      "stateMutability": "view",
      "type": "function"
    },
    {
      "inputs": [
        {
          "internalType": "address",
          "name": "from",
          "type": "address"
        },
        {
          "internalType": "address",
          "name": "to",
          "type": "address"
        },
        {
          "internalType": "uint256",
          "name": "tokenId",
          "type": "uint256"
        }
      ],
      "name": "transferFrom",
      "outputs": [],
      "stateMutability": "nonpayable",
      "type": "function"
    },
    {
      "inputs": [
        {
          "internalType": "address",
          "name": "newOwner",
          "type": "address"
        }
      ],
      "name": "transferOwnership",
      "outputs": [],
      "stateMutability": "nonpayable",
      "type": "function"
    },
    {
      "inputs": [],
      "name": "withdraw",
      "outputs": [],
      "stateMutability": "nonpayable",
      "type": "function"
    }
  ],
  "transactionHash": "0x5807f3b06df2782a068512403eaa5d17c8c3cf48ce830ebf00a0281ad6f113dd",
  "args": [
    "0x8103B0A8A00be2DDC778e6e7eaa21791Cd364625",
    "0x79d3d8832d904592c0bf9818b621522c988bb8b0c05cdc3b15aea1b6e8db0c15",
    2,
    500000,
    [
      "ipfs.io/ipfs/Qma7WbE2QcPiemmpQ2X83eLNQe2QFoeGg77Uw465bFiKaL",
      "ipfs.io/ipfs/QmZCNWpweUFypDqKLSUV3xVjtaWv9aifJsJ3SEGCEKEK4t",
      "ipfs.io/ipfs/QmYHgTbR3Gbh2FJ7kAxHcq5Sz4pqeEHmMMjj2uuwcJ3mDc"
    ]
  ],
  "numDeployments": 1,
  "solcInputHash": "b42851fa7b88a9a1b1750242b55e5b05",
  "bytecode": "0x6101206040523480156200001257600080fd5b506040516200493838038062004938833981810160405281019062000038919062000735565b846040518060400160405280600a81526020017f2452616e646f6d4e4654000000000000000000000000000000000000000000008152506040518060400160405280600581526020017f24524e46540000000000000000000000000000000000000000000000000000008152508160009081620000b6919062000a27565b508060019081620000c8919062000a27565b5050508073ffffffffffffffffffffffffffffffffffffffff1660808173ffffffffffffffffffffffffffffffffffffffff1681525050506200012062000114620001d760201b60201c565b620001df60201b60201c565b60016008819055506000600960006101000a81548160ff0219169083151502179055508473ffffffffffffffffffffffffffffffffffffffff1660a08173ffffffffffffffffffffffffffffffffffffffff16815250506000600a819055508360c081815250508267ffffffffffffffff1660e08167ffffffffffffffff16815250508163ffffffff166101008163ffffffff168152505080600c906003620001cb929190620002a5565b50505050505062000b0e565b600033905090565b6000600760009054906101000a900473ffffffffffffffffffffffffffffffffffffffff16905081600760006101000a81548173ffffffffffffffffffffffffffffffffffffffff021916908373ffffffffffffffffffffffffffffffffffffffff1602179055508173ffffffffffffffffffffffffffffffffffffffff168173ffffffffffffffffffffffffffffffffffffffff167f8be0079c531659141344cd1fd0a4f28419497f9722a3daafe3b4186f6b6457e060405160405180910390a35050565b828054828255906000526020600020908101928215620002f2579160200282015b82811115620002f1578251829081620002e0919062000a27565b5091602001919060010190620002c6565b5b50905062000301919062000305565b5090565b5b808211156200032957600081816200031f91906200032d565b5060010162000306565b5090565b5080546200033b9062000816565b6000825580601f106200034f575062000370565b601f0160209004906000526020600020908101906200036f919062000373565b5b50565b5b808211156200038e57600081600090555060010162000374565b5090565b6000604051905090565b600080fd5b600080fd5b600073ffffffffffffffffffffffffffffffffffffffff82169050919050565b6000620003d382620003a6565b9050919050565b620003e581620003c6565b8114620003f157600080fd5b50565b6000815190506200040581620003da565b92915050565b6000819050919050565b62000420816200040b565b81146200042c57600080fd5b50565b600081519050620004408162000415565b92915050565b600067ffffffffffffffff82169050919050565b620004658162000446565b81146200047157600080fd5b50565b60008151905062000485816200045a565b92915050565b600063ffffffff82169050919050565b620004a6816200048b565b8114620004b257600080fd5b50565b600081519050620004c6816200049b565b92915050565b600080fd5b6000601f19601f8301169050919050565b7f4e487b7100000000000000000000000000000000000000000000000000000000600052604160045260246000fd5b6200051c82620004d1565b810181811067ffffffffffffffff821117156200053e576200053d620004e2565b5b80604052505050565b60006200055362000392565b905062000561828262000511565b919050565b600067ffffffffffffffff821115620005845762000583620004e2565b5b602082029050919050565b600080fd5b600080fd5b600067ffffffffffffffff821115620005b757620005b6620004e2565b5b620005c282620004d1565b9050602081019050919050565b60005b83811015620005ef578082015181840152602081019050620005d2565b60008484015250505050565b6000620006126200060c8462000599565b62000547565b90508281526020810184848401111562000631576200063062000594565b5b6200063e848285620005cf565b509392505050565b600082601f8301126200065e576200065d620004cc565b5b815162000670848260208601620005fb565b91505092915050565b6000620006906200068a8462000566565b62000547565b90508060208402830185811115620006ad57620006ac6200058f565b5b835b81811015620006fb57805167ffffffffffffffff811115620006d657620006d5620004cc565b5b808601620006e5898262000646565b85526020850194505050602081019050620006af565b5050509392505050565b600082601f8301126200071d576200071c620004cc565b5b60036200072c84828562000679565b91505092915050565b600080600080600060a086880312156200075457620007536200039c565b5b60006200076488828901620003f4565b955050602062000777888289016200042f565b94505060406200078a8882890162000474565b93505060606200079d88828901620004b5565b925050608086015167ffffffffffffffff811115620007c157620007c0620003a1565b5b620007cf8882890162000705565b9150509295509295909350565b600081519050919050565b7f4e487b7100000000000000000000000000000000000000000000000000000000600052602260045260246000fd5b600060028204905060018216806200082f57607f821691505b602082108103620008455762000844620007e7565b5b50919050565b60008190508160005260206000209050919050565b60006020601f8301049050919050565b600082821b905092915050565b600060088302620008af7fffffffffffffffffffffffffffffffffffffffffffffffffffffffffffffffff8262000870565b620008bb868362000870565b95508019841693508086168417925050509392505050565b6000819050919050565b6000819050919050565b60006200090862000902620008fc84620008d3565b620008dd565b620008d3565b9050919050565b6000819050919050565b6200092483620008e7565b6200093c62000933826200090f565b8484546200087d565b825550505050565b600090565b6200095362000944565b6200096081848462000919565b505050565b5b8181101562000988576200097c60008262000949565b60018101905062000966565b5050565b601f821115620009d757620009a1816200084b565b620009ac8462000860565b81016020851015620009bc578190505b620009d4620009cb8562000860565b83018262000965565b50505b505050565b600082821c905092915050565b6000620009fc60001984600802620009dc565b1980831691505092915050565b600062000a178383620009e9565b9150826002028217905092915050565b62000a3282620007dc565b67ffffffffffffffff81111562000a4e5762000a4d620004e2565b5b62000a5a825462000816565b62000a678282856200098c565b600060209050601f83116001811462000a9f576000841562000a8a578287015190505b62000a96858262000a09565b86555062000b06565b601f19841662000aaf866200084b565b60005b8281101562000ad95784890151825560018201915060208501945060208101905062000ab2565b8683101562000af9578489015162000af5601f891682620009e9565b8355505b6001600288020188555050505b505050505050565b60805160a05160c05160e05161010051613dde62000b5a600039600061082d0152600061080a015260006107e9015260006107ad015260008181610ab30152610b070152613dde6000f3fe60806040526004361061014b5760003560e01c806370a08231116100b6578063a22cb4651161006f578063a22cb4651461046f578063b88d4fde14610498578063c87b56dd146104c1578063e985e9c5146104fe578063f2fde38b1461053b578063f613d221146105645761014b565b806370a0823114610371578063715018a6146103ae578063791b2123146103c55780638456cb59146104025780638da5cb5b1461041957806395d89b41146104445761014b565b806323b872dd1161010857806323b872dd146102635780633bb3a24d1461028c5780633ccfd60b146102c957806342842e0e146102e05780635c975abb146103095780636352211e146103345761014b565b806301ffc9a71461015057806306fdde031461018d57806307883703146101b8578063081812fc146101d4578063095ea7b3146102115780631fe543e31461023a575b600080fd5b34801561015c57600080fd5b50610177600480360381019061017291906126c2565b61058f565b604051610184919061270a565b60405180910390f35b34801561019957600080fd5b506101a2610671565b6040516101af91906127b5565b60405180910390f35b6101d260048036038101906101cd919061280d565b610703565b005b3480156101e057600080fd5b506101fb60048036038101906101f6919061280d565b610954565b604051610208919061287b565b60405180910390f35b34801561021d57600080fd5b50610238600480360381019061023391906128c2565b61099a565b005b34801561024657600080fd5b50610261600480360381019061025c9190612a4a565b610ab1565b005b34801561026f57600080fd5b5061028a60048036038101906102859190612aa6565b610b71565b005b34801561029857600080fd5b506102b360048036038101906102ae919061280d565b610bd1565b6040516102c091906127b5565b60405180910390f35b3480156102d557600080fd5b506102de610c81565b005b3480156102ec57600080fd5b5061030760048036038101906103029190612aa6565b610d90565b005b34801561031557600080fd5b5061031e610db0565b60405161032b919061270a565b60405180910390f35b34801561034057600080fd5b5061035b6004803603810190610356919061280d565b610dc7565b604051610368919061287b565b60405180910390f35b34801561037d57600080fd5b5061039860048036038101906103939190612af9565b610e4d565b6040516103a59190612b35565b60405180910390f35b3480156103ba57600080fd5b506103c3610f04565b005b3480156103d157600080fd5b506103ec60048036038101906103e7919061280d565b610f18565b6040516103f99190612bc7565b60405180910390f35b34801561040e57600080fd5b50610417610ff1565b005b34801561042557600080fd5b5061042e611003565b60405161043b919061287b565b60405180910390f35b34801561045057600080fd5b5061045961102d565b60405161046691906127b5565b60405180910390f35b34801561047b57600080fd5b5061049660048036038101906104919190612c0e565b6110bf565b005b3480156104a457600080fd5b506104bf60048036038101906104ba9190612d03565b6110d5565b005b3480156104cd57600080fd5b506104e860048036038101906104e3919061280d565b611137565b6040516104f591906127b5565b60405180910390f35b34801561050a57600080fd5b5061052560048036038101906105209190612d86565b611249565b604051610532919061270a565b60405180910390f35b34801561054757600080fd5b50610562600480360381019061055d9190612af9565b6112dd565b005b34801561057057600080fd5b50610579611360565b6040516105869190612e71565b60405180910390f35b60007f80ac58cd000000000000000000000000000000000000000000000000000000007bffffffffffffffffffffffffffffffffffffffffffffffffffffffff1916827bffffffffffffffffffffffffffffffffffffffffffffffffffffffff1916148061065a57507f5b5e139f000000000000000000000000000000000000000000000000000000007bffffffffffffffffffffffffffffffffffffffffffffffffffffffff1916827bffffffffffffffffffffffffffffffffffffffffffffffffffffffff1916145b8061066a57506106698261138b565b5b9050919050565b60606000805461068090612ebb565b80601f01602080910402602001604051908101604052809291908181526020018280546106ac90612ebb565b80156106f95780601f106106ce576101008083540402835291602001916106f9565b820191906000526020600020905b8154815290600101906020018083116106dc57829003601f168201915b5050505050905090565b61070b6113f5565b600073ffffffffffffffffffffffffffffffffffffffff163373ffffffffffffffffffffffffffffffffffffffff1603610771576040517fd92d505800000000000000000000000000000000000000000000000000000000815260040160405180910390fd5b803410156107ab576040517f948e185b00000000000000000000000000000000000000000000000000000000815260040160405180910390fd5b7f000000000000000000000000000000000000000000000000000000000000000073ffffffffffffffffffffffffffffffffffffffff16635d3b1d307f00000000000000000000000000000000000000000000000000000000000000007f000000000000000000000000000000000000000000000000000000000000000060017f000000000000000000000000000000000000000000000000000000000000000060036040518663ffffffff1660e01b815260040161086e959493929190612f64565b6020604051808303816000875af115801561088d573d6000803e3d6000fd5b505050506040513d601f19601f820116820180604052508101906108b19190612fcc565b600b8190555033600d6000600b54815260200190815260200160002060006101000a81548173ffffffffffffffffffffffffffffffffffffffff021916908373ffffffffffffffffffffffffffffffffffffffff1602179055503373ffffffffffffffffffffffffffffffffffffffff16600b547f567e9d49bb5f5bd3482af37a9d7407b96f5a2c6e627f85998896f3f175b3796d60405160405180910390a350565b600061095f8261143f565b6004600083815260200190815260200160002060009054906101000a900473ffffffffffffffffffffffffffffffffffffffff169050919050565b60006109a582610dc7565b90508073ffffffffffffffffffffffffffffffffffffffff168373ffffffffffffffffffffffffffffffffffffffff1603610a15576040517f08c379a0000000000000000000000000000000000000000000000000000000008152600401610a0c9061306b565b60405180910390fd5b8073ffffffffffffffffffffffffffffffffffffffff16610a3461148a565b73ffffffffffffffffffffffffffffffffffffffff161480610a635750610a6281610a5d61148a565b611249565b5b610aa2576040517f08c379a0000000000000000000000000000000000000000000000000000000008152600401610a99906130fd565b60405180910390fd5b610aac8383611492565b505050565b7f000000000000000000000000000000000000000000000000000000000000000073ffffffffffffffffffffffffffffffffffffffff163373ffffffffffffffffffffffffffffffffffffffff1614610b6357337f00000000000000000000000000000000000000000000000000000000000000006040517f1cf993f4000000000000000000000000000000000000000000000000000000008152600401610b5a92919061311d565b60405180910390fd5b610b6d828261154b565b5050565b610b82610b7c61148a565b826116f1565b610bc1576040517f08c379a0000000000000000000000000000000000000000000000000000000008152600401610bb8906131b8565b60405180910390fd5b610bcc838383611786565b505050565b6060600c8281548110610be757610be66131d8565b5b906000526020600020018054610bfc90612ebb565b80601f0160208091040260200160405190810160405280929190818152602001828054610c2890612ebb565b8015610c755780601f10610c4a57610100808354040283529160200191610c75565b820191906000526020600020905b815481529060010190602001808311610c5857829003601f168201915b50505050509050919050565b610c89611a7f565b610c91611afd565b600047905060008111610cd0576040517ff162162a00000000000000000000000000000000000000000000000000000000815260040160405180910390fd5b60003373ffffffffffffffffffffffffffffffffffffffff1682604051610cf690613238565b60006040518083038185875af1925050503d8060008114610d33576040519150601f19603f3d011682016040523d82523d6000602084013e610d38565b606091505b5050905080610d73576040517f0172c10b00000000000000000000000000000000000000000000000000000000815260040160405180910390fd5b60008214610d8457610d8361324d565b5b5050610d8e611b4c565b565b610dab838383604051806020016040528060008152506110d5565b505050565b6000600960009054906101000a900460ff16905090565b600080610dd383611b56565b9050600073ffffffffffffffffffffffffffffffffffffffff168173ffffffffffffffffffffffffffffffffffffffff1603610e44576040517f08c379a0000000000000000000000000000000000000000000000000000000008152600401610e3b906132c8565b60405180910390fd5b80915050919050565b60008073ffffffffffffffffffffffffffffffffffffffff168273ffffffffffffffffffffffffffffffffffffffff1603610ebd576040517f08c379a0000000000000000000000000000000000000000000000000000000008152600401610eb49061335a565b60405180910390fd5b600360008373ffffffffffffffffffffffffffffffffffffffff1673ffffffffffffffffffffffffffffffffffffffff168152602001908152602001600020549050919050565b610f0c611a7f565b610f166000611b93565b565b600080610f23611360565b90506000805b6003811015610fb957818510158015610f615750610f5e82848360038110610f5457610f536131d8565b5b6020020151611c59565b85105b15610f8357806002811115610f7957610f78612b50565b5b9350505050610fec565b610fa482848360038110610f9a57610f996131d8565b5b6020020151611c59565b91508080610fb1906133a9565b915050610f29565b506040517f3ef61efa00000000000000000000000000000000000000000000000000000000815260040160405180910390fd5b919050565b610ff9611a7f565b611001611c6f565b565b6000600760009054906101000a900473ffffffffffffffffffffffffffffffffffffffff16905090565b60606001805461103c90612ebb565b80601f016020809104026020016040519081016040528092919081815260200182805461106890612ebb565b80156110b55780601f1061108a576101008083540402835291602001916110b5565b820191906000526020600020905b81548152906001019060200180831161109857829003601f168201915b5050505050905090565b6110d16110ca61148a565b8383611cd2565b5050565b6110e66110e061148a565b836116f1565b611125576040517f08c379a000000000000000000000000000000000000000000000000000000000815260040161111c906131b8565b60405180910390fd5b61113184848484611e3e565b50505050565b60606111428261143f565b600060066000848152602001908152602001600020805461116290612ebb565b80601f016020809104026020016040519081016040528092919081815260200182805461118e90612ebb565b80156111db5780601f106111b0576101008083540402835291602001916111db565b820191906000526020600020905b8154815290600101906020018083116111be57829003601f168201915b5050505050905060006111ec611e9a565b90506000815103611201578192505050611244565b60008251111561123657808260405160200161121e92919061342d565b60405160208183030381529060405292505050611244565b61123f84611eb1565b925050505b919050565b6000600560008473ffffffffffffffffffffffffffffffffffffffff1673ffffffffffffffffffffffffffffffffffffffff16815260200190815260200160002060008373ffffffffffffffffffffffffffffffffffffffff1673ffffffffffffffffffffffffffffffffffffffff16815260200190815260200160002060009054906101000a900460ff16905092915050565b6112e5611a7f565b600073ffffffffffffffffffffffffffffffffffffffff168173ffffffffffffffffffffffffffffffffffffffff1603611354576040517f08c379a000000000000000000000000000000000000000000000000000000000815260040161134b906134c3565b60405180910390fd5b61135d81611b93565b50565b611368612634565b6040518060600160405280600a8152602001601e81526020016064815250905090565b60007f01ffc9a7000000000000000000000000000000000000000000000000000000007bffffffffffffffffffffffffffffffffffffffffffffffffffffffff1916827bffffffffffffffffffffffffffffffffffffffffffffffffffffffff1916149050919050565b6113fd610db0565b1561143d576040517f08c379a00000000000000000000000000000000000000000000000000000000081526004016114349061352f565b60405180910390fd5b565b61144881611f19565b611487576040517f08c379a000000000000000000000000000000000000000000000000000000000815260040161147e906132c8565b60405180910390fd5b50565b600033905090565b816004600083815260200190815260200160002060006101000a81548173ffffffffffffffffffffffffffffffffffffffff021916908373ffffffffffffffffffffffffffffffffffffffff160217905550808273ffffffffffffffffffffffffffffffffffffffff1661150583610dc7565b73ffffffffffffffffffffffffffffffffffffffff167f8c5be1e5ebec7d5bd14f71427d1e84f3dd0314c0f7b2291e5b200ac8c7c3b92560405160405180910390a45050565b6000600d600084815260200190815260200160002060009054906101000a900473ffffffffffffffffffffffffffffffffffffffff169050600060648360008151811061159b5761159a6131d8565b5b60200260200101516115ad919061357e565b905060006115ba82610f18565b90506115c883600a54611f5a565b61168c600a54600c8360028111156115e3576115e2612b50565b5b815481106115f4576115f36131d8565b5b90600052602060002001805461160990612ebb565b80601f016020809104026020016040519081016040528092919081815260200182805461163590612ebb565b80156116825780601f1061165757610100808354040283529160200191611682565b820191906000526020600020905b81548152906001019060200180831161166557829003601f168201915b5050505050611f78565b6001600a600082825461169f91906135af565b92505081905550848373ffffffffffffffffffffffffffffffffffffffff167f9b2e8e9eac28324a880b002c2206824a7de829a702074f48fa761ff21479a24a60405160405180910390a35050505050565b6000806116fd83610dc7565b90508073ffffffffffffffffffffffffffffffffffffffff168473ffffffffffffffffffffffffffffffffffffffff16148061173f575061173e8185611249565b5b8061177d57508373ffffffffffffffffffffffffffffffffffffffff1661176584610954565b73ffffffffffffffffffffffffffffffffffffffff16145b91505092915050565b8273ffffffffffffffffffffffffffffffffffffffff166117a682610dc7565b73ffffffffffffffffffffffffffffffffffffffff16146117fc576040517f08c379a00000000000000000000000000000000000000000000000000000000081526004016117f390613655565b60405180910390fd5b600073ffffffffffffffffffffffffffffffffffffffff168273ffffffffffffffffffffffffffffffffffffffff160361186b576040517f08c379a0000000000000000000000000000000000000000000000000000000008152600401611862906136e7565b60405180910390fd5b6118788383836001611fe5565b8273ffffffffffffffffffffffffffffffffffffffff1661189882610dc7565b73ffffffffffffffffffffffffffffffffffffffff16146118ee576040517f08c379a00000000000000000000000000000000000000000000000000000000081526004016118e590613655565b60405180910390fd5b6004600082815260200190815260200160002060006101000a81549073ffffffffffffffffffffffffffffffffffffffff02191690556001600360008573ffffffffffffffffffffffffffffffffffffffff1673ffffffffffffffffffffffffffffffffffffffff168152602001908152602001600020600082825403925050819055506001600360008473ffffffffffffffffffffffffffffffffffffffff1673ffffffffffffffffffffffffffffffffffffffff16815260200190815260200160002060008282540192505081905550816002600083815260200190815260200160002060006101000a81548173ffffffffffffffffffffffffffffffffffffffff021916908373ffffffffffffffffffffffffffffffffffffffff160217905550808273ffffffffffffffffffffffffffffffffffffffff168473ffffffffffffffffffffffffffffffffffffffff167fddf252ad1be2c89b69c2b068fc378daa952ba7f163c4a11628f55a4df523b3ef60405160405180910390a4611a7a8383836001611feb565b505050565b611a8761148a565b73ffffffffffffffffffffffffffffffffffffffff16611aa5611003565b73ffffffffffffffffffffffffffffffffffffffff1614611afb576040517f08c379a0000000000000000000000000000000000000000000000000000000008152600401611af290613753565b60405180910390fd5b565b600260085403611b42576040517f08c379a0000000000000000000000000000000000000000000000000000000008152600401611b39906137bf565b60405180910390fd5b6002600881905550565b6001600881905550565b60006002600083815260200190815260200160002060009054906101000a900473ffffffffffffffffffffffffffffffffffffffff169050919050565b6000600760009054906101000a900473ffffffffffffffffffffffffffffffffffffffff16905081600760006101000a81548173ffffffffffffffffffffffffffffffffffffffff021916908373ffffffffffffffffffffffffffffffffffffffff1602179055508173ffffffffffffffffffffffffffffffffffffffff168173ffffffffffffffffffffffffffffffffffffffff167f8be0079c531659141344cd1fd0a4f28419497f9722a3daafe3b4186f6b6457e060405160405180910390a35050565b60008183611c6791906135af565b905092915050565b611c776113f5565b6001600960006101000a81548160ff0219169083151502179055507f62e78cea01bee320cd4e420270b5ea74000d11b0c9f74754ebdbfc544b05a258611cbb61148a565b604051611cc8919061287b565b60405180910390a1565b8173ffffffffffffffffffffffffffffffffffffffff168373ffffffffffffffffffffffffffffffffffffffff1603611d40576040517f08c379a0000000000000000000000000000000000000000000000000000000008152600401611d379061382b565b60405180910390fd5b80600560008573ffffffffffffffffffffffffffffffffffffffff1673ffffffffffffffffffffffffffffffffffffffff16815260200190815260200160002060008473ffffffffffffffffffffffffffffffffffffffff1673ffffffffffffffffffffffffffffffffffffffff16815260200190815260200160002060006101000a81548160ff0219169083151502179055508173ffffffffffffffffffffffffffffffffffffffff168373ffffffffffffffffffffffffffffffffffffffff167f17307eab39ab6107e8899845ad3d59bd9653f200f220920489ca2b5937696c3183604051611e31919061270a565b60405180910390a3505050565b611e49848484611786565b611e5584848484611ff1565b611e94576040517f08c379a0000000000000000000000000000000000000000000000000000000008152600401611e8b906138bd565b60405180910390fd5b50505050565b606060405180602001604052806000815250905090565b6060611ebc8261143f565b6000611ec6611e9a565b90506000815111611ee65760405180602001604052806000815250611f11565b80611ef084612178565b604051602001611f0192919061342d565b6040516020818303038152906040525b915050919050565b60008073ffffffffffffffffffffffffffffffffffffffff16611f3b83611b56565b73ffffffffffffffffffffffffffffffffffffffff1614159050919050565b611f74828260405180602001604052806000815250612246565b5050565b611f8182611f19565b611fc0576040517f08c379a0000000000000000000000000000000000000000000000000000000008152600401611fb79061394f565b60405180910390fd5b80600660008481526020019081526020016000209081611fe09190613b1b565b505050565b50505050565b50505050565b60006120128473ffffffffffffffffffffffffffffffffffffffff166122a1565b1561216b578373ffffffffffffffffffffffffffffffffffffffff1663150b7a0261203b61148a565b8786866040518563ffffffff1660e01b815260040161205d9493929190613c42565b6020604051808303816000875af192505050801561209957506040513d601f19601f820116820180604052508101906120969190613ca3565b60015b61211b573d80600081146120c9576040519150601f19603f3d011682016040523d82523d6000602084013e6120ce565b606091505b506000815103612113576040517f08c379a000000000000000000000000000000000000000000000000000000000815260040161210a906138bd565b60405180910390fd5b805181602001fd5b63150b7a0260e01b7bffffffffffffffffffffffffffffffffffffffffffffffffffffffff1916817bffffffffffffffffffffffffffffffffffffffffffffffffffffffff191614915050612170565b600190505b949350505050565b606060006001612187846122c4565b01905060008167ffffffffffffffff8111156121a6576121a5612907565b5b6040519080825280601f01601f1916602001820160405280156121d85781602001600182028036833780820191505090505b509050600082602001820190505b60011561223b578080600190039150507f3031323334353637383961626364656600000000000000000000000000000000600a86061a8153600a858161222f5761222e61354f565b5b049450600085036121e6575b819350505050919050565b6122508383612417565b61225d6000848484611ff1565b61229c576040517f08c379a0000000000000000000000000000000000000000000000000000000008152600401612293906138bd565b60405180910390fd5b505050565b6000808273ffffffffffffffffffffffffffffffffffffffff163b119050919050565b600080600090507a184f03e93ff9f4daa797ed6e38ed64bf6a1f0100000000000000008310612322577a184f03e93ff9f4daa797ed6e38ed64bf6a1f01000000000000000083816123185761231761354f565b5b0492506040810190505b6d04ee2d6d415b85acef8100000000831061235f576d04ee2d6d415b85acef810000000083816123555761235461354f565b5b0492506020810190505b662386f26fc10000831061238e57662386f26fc1000083816123845761238361354f565b5b0492506010810190505b6305f5e10083106123b7576305f5e10083816123ad576123ac61354f565b5b0492506008810190505b61271083106123dc5761271083816123d2576123d161354f565b5b0492506004810190505b606483106123ff57606483816123f5576123f461354f565b5b0492506002810190505b600a831061240e576001810190505b80915050919050565b600073ffffffffffffffffffffffffffffffffffffffff168273ffffffffffffffffffffffffffffffffffffffff1603612486576040517f08c379a000000000000000000000000000000000000000000000000000000000815260040161247d90613d1c565b60405180910390fd5b61248f81611f19565b156124cf576040517f08c379a00000000000000000000000000000000000000000000000000000000081526004016124c690613d88565b60405180910390fd5b6124dd600083836001611fe5565b6124e681611f19565b15612526576040517f08c379a000000000000000000000000000000000000000000000000000000000815260040161251d90613d88565b60405180910390fd5b6001600360008473ffffffffffffffffffffffffffffffffffffffff1673ffffffffffffffffffffffffffffffffffffffff16815260200190815260200160002060008282540192505081905550816002600083815260200190815260200160002060006101000a81548173ffffffffffffffffffffffffffffffffffffffff021916908373ffffffffffffffffffffffffffffffffffffffff160217905550808273ffffffffffffffffffffffffffffffffffffffff16600073ffffffffffffffffffffffffffffffffffffffff167fddf252ad1be2c89b69c2b068fc378daa952ba7f163c4a11628f55a4df523b3ef60405160405180910390a4612630600083836001611feb565b5050565b6040518060600160405280600390602082028036833780820191505090505090565b6000604051905090565b600080fd5b600080fd5b60007fffffffff0000000000000000000000000000000000000000000000000000000082169050919050565b61269f8161266a565b81146126aa57600080fd5b50565b6000813590506126bc81612696565b92915050565b6000602082840312156126d8576126d7612660565b5b60006126e6848285016126ad565b91505092915050565b60008115159050919050565b612704816126ef565b82525050565b600060208201905061271f60008301846126fb565b92915050565b600081519050919050565b600082825260208201905092915050565b60005b8381101561275f578082015181840152602081019050612744565b60008484015250505050565b6000601f19601f8301169050919050565b600061278782612725565b6127918185612730565b93506127a1818560208601612741565b6127aa8161276b565b840191505092915050565b600060208201905081810360008301526127cf818461277c565b905092915050565b6000819050919050565b6127ea816127d7565b81146127f557600080fd5b50565b600081359050612807816127e1565b92915050565b60006020828403121561282357612822612660565b5b6000612831848285016127f8565b91505092915050565b600073ffffffffffffffffffffffffffffffffffffffff82169050919050565b60006128658261283a565b9050919050565b6128758161285a565b82525050565b6000602082019050612890600083018461286c565b92915050565b61289f8161285a565b81146128aa57600080fd5b50565b6000813590506128bc81612896565b92915050565b600080604083850312156128d9576128d8612660565b5b60006128e7858286016128ad565b92505060206128f8858286016127f8565b9150509250929050565b600080fd5b7f4e487b7100000000000000000000000000000000000000000000000000000000600052604160045260246000fd5b61293f8261276b565b810181811067ffffffffffffffff8211171561295e5761295d612907565b5b80604052505050565b6000612971612656565b905061297d8282612936565b919050565b600067ffffffffffffffff82111561299d5761299c612907565b5b602082029050602081019050919050565b600080fd5b60006129c66129c184612982565b612967565b905080838252602082019050602084028301858111156129e9576129e86129ae565b5b835b81811015612a1257806129fe88826127f8565b8452602084019350506020810190506129eb565b5050509392505050565b600082601f830112612a3157612a30612902565b5b8135612a418482602086016129b3565b91505092915050565b60008060408385031215612a6157612a60612660565b5b6000612a6f858286016127f8565b925050602083013567ffffffffffffffff811115612a9057612a8f612665565b5b612a9c85828601612a1c565b9150509250929050565b600080600060608486031215612abf57612abe612660565b5b6000612acd868287016128ad565b9350506020612ade868287016128ad565b9250506040612aef868287016127f8565b9150509250925092565b600060208284031215612b0f57612b0e612660565b5b6000612b1d848285016128ad565b91505092915050565b612b2f816127d7565b82525050565b6000602082019050612b4a6000830184612b26565b92915050565b7f4e487b7100000000000000000000000000000000000000000000000000000000600052602160045260246000fd5b60038110612b9057612b8f612b50565b5b50565b6000819050612ba182612b7f565b919050565b6000612bb182612b93565b9050919050565b612bc181612ba6565b82525050565b6000602082019050612bdc6000830184612bb8565b92915050565b612beb816126ef565b8114612bf657600080fd5b50565b600081359050612c0881612be2565b92915050565b60008060408385031215612c2557612c24612660565b5b6000612c33858286016128ad565b9250506020612c4485828601612bf9565b9150509250929050565b600080fd5b600067ffffffffffffffff821115612c6e57612c6d612907565b5b612c778261276b565b9050602081019050919050565b82818337600083830152505050565b6000612ca6612ca184612c53565b612967565b905082815260208101848484011115612cc257612cc1612c4e565b5b612ccd848285612c84565b509392505050565b600082601f830112612cea57612ce9612902565b5b8135612cfa848260208601612c93565b91505092915050565b60008060008060808587031215612d1d57612d1c612660565b5b6000612d2b878288016128ad565b9450506020612d3c878288016128ad565b9350506040612d4d878288016127f8565b925050606085013567ffffffffffffffff811115612d6e57612d6d612665565b5b612d7a87828801612cd5565b91505092959194509250565b60008060408385031215612d9d57612d9c612660565b5b6000612dab858286016128ad565b9250506020612dbc858286016128ad565b9150509250929050565b600060039050919050565b600081905092915050565b6000819050919050565b612def816127d7565b82525050565b6000612e018383612de6565b60208301905092915050565b6000602082019050919050565b612e2381612dc6565b612e2d8184612dd1565b9250612e3882612ddc565b8060005b83811015612e69578151612e508782612df5565b9650612e5b83612e0d565b925050600181019050612e3c565b505050505050565b6000606082019050612e866000830184612e1a565b92915050565b7f4e487b7100000000000000000000000000000000000000000000000000000000600052602260045260246000fd5b60006002820490506001821680612ed357607f821691505b602082108103612ee657612ee5612e8c565b5b50919050565b6000819050919050565b612eff81612eec565b82525050565b600067ffffffffffffffff82169050919050565b612f2281612f05565b82525050565b600061ffff82169050919050565b612f3f81612f28565b82525050565b600063ffffffff82169050919050565b612f5e81612f45565b82525050565b600060a082019050612f796000830188612ef6565b612f866020830187612f19565b612f936040830186612f36565b612fa06060830185612f55565b612fad6080830184612f55565b9695505050505050565b600081519050612fc6816127e1565b92915050565b600060208284031215612fe257612fe1612660565b5b6000612ff084828501612fb7565b91505092915050565b7f4552433732313a20617070726f76616c20746f2063757272656e74206f776e6560008201527f7200000000000000000000000000000000000000000000000000000000000000602082015250565b6000613055602183612730565b915061306082612ff9565b604082019050919050565b6000602082019050818103600083015261308481613048565b9050919050565b7f4552433732313a20617070726f76652063616c6c6572206973206e6f7420746f60008201527f6b656e206f776e6572206f7220617070726f76656420666f7220616c6c000000602082015250565b60006130e7603d83612730565b91506130f28261308b565b604082019050919050565b60006020820190508181036000830152613116816130da565b9050919050565b6000604082019050613132600083018561286c565b61313f602083018461286c565b9392505050565b7f4552433732313a2063616c6c6572206973206e6f7420746f6b656e206f776e6560008201527f72206f7220617070726f76656400000000000000000000000000000000000000602082015250565b60006131a2602d83612730565b91506131ad82613146565b604082019050919050565b600060208201905081810360008301526131d181613195565b9050919050565b7f4e487b7100000000000000000000000000000000000000000000000000000000600052603260045260246000fd5b600081905092915050565b50565b6000613222600083613207565b915061322d82613212565b600082019050919050565b600061324382613215565b9150819050919050565b7f4e487b7100000000000000000000000000000000000000000000000000000000600052600160045260246000fd5b7f4552433732313a20696e76616c696420746f6b656e2049440000000000000000600082015250565b60006132b2601883612730565b91506132bd8261327c565b602082019050919050565b600060208201905081810360008301526132e1816132a5565b9050919050565b7f4552433732313a2061646472657373207a65726f206973206e6f74206120766160008201527f6c6964206f776e65720000000000000000000000000000000000000000000000602082015250565b6000613344602983612730565b915061334f826132e8565b604082019050919050565b6000602082019050818103600083015261337381613337565b9050919050565b7f4e487b7100000000000000000000000000000000000000000000000000000000600052601160045260246000fd5b60006133b4826127d7565b91507fffffffffffffffffffffffffffffffffffffffffffffffffffffffffffffffff82036133e6576133e561337a565b5b600182019050919050565b600081905092915050565b600061340782612725565b61341181856133f1565b9350613421818560208601612741565b80840191505092915050565b600061343982856133fc565b915061344582846133fc565b91508190509392505050565b7f4f776e61626c653a206e6577206f776e657220697320746865207a65726f206160008201527f6464726573730000000000000000000000000000000000000000000000000000602082015250565b60006134ad602683612730565b91506134b882613451565b604082019050919050565b600060208201905081810360008301526134dc816134a0565b9050919050565b7f5061757361626c653a2070617573656400000000000000000000000000000000600082015250565b6000613519601083612730565b9150613524826134e3565b602082019050919050565b600060208201905081810360008301526135488161350c565b9050919050565b7f4e487b7100000000000000000000000000000000000000000000000000000000600052601260045260246000fd5b6000613589826127d7565b9150613594836127d7565b9250826135a4576135a361354f565b5b828206905092915050565b60006135ba826127d7565b91506135c5836127d7565b92508282019050808211156135dd576135dc61337a565b5b92915050565b7f4552433732313a207472616e736665722066726f6d20696e636f72726563742060008201527f6f776e6572000000000000000000000000000000000000000000000000000000602082015250565b600061363f602583612730565b915061364a826135e3565b604082019050919050565b6000602082019050818103600083015261366e81613632565b9050919050565b7f4552433732313a207472616e7366657220746f20746865207a65726f2061646460008201527f7265737300000000000000000000000000000000000000000000000000000000602082015250565b60006136d1602483612730565b91506136dc82613675565b604082019050919050565b60006020820190508181036000830152613700816136c4565b9050919050565b7f4f776e61626c653a2063616c6c6572206973206e6f7420746865206f776e6572600082015250565b600061373d602083612730565b915061374882613707565b602082019050919050565b6000602082019050818103600083015261376c81613730565b9050919050565b7f5265656e7472616e637947756172643a207265656e7472616e742063616c6c00600082015250565b60006137a9601f83612730565b91506137b482613773565b602082019050919050565b600060208201905081810360008301526137d88161379c565b9050919050565b7f4552433732313a20617070726f766520746f2063616c6c657200000000000000600082015250565b6000613815601983612730565b9150613820826137df565b602082019050919050565b6000602082019050818103600083015261384481613808565b9050919050565b7f4552433732313a207472616e7366657220746f206e6f6e20455243373231526560008201527f63656976657220696d706c656d656e7465720000000000000000000000000000602082015250565b60006138a7603283612730565b91506138b28261384b565b604082019050919050565b600060208201905081810360008301526138d68161389a565b9050919050565b7f45524337323155524953746f726167653a2055524920736574206f66206e6f6e60008201527f6578697374656e7420746f6b656e000000000000000000000000000000000000602082015250565b6000613939602e83612730565b9150613944826138dd565b604082019050919050565b600060208201905081810360008301526139688161392c565b9050919050565b60008190508160005260206000209050919050565b60006020601f8301049050919050565b600082821b905092915050565b6000600883026139d17fffffffffffffffffffffffffffffffffffffffffffffffffffffffffffffffff82613994565b6139db8683613994565b95508019841693508086168417925050509392505050565b6000819050919050565b6000613a18613a13613a0e846127d7565b6139f3565b6127d7565b9050919050565b6000819050919050565b613a32836139fd565b613a46613a3e82613a1f565b8484546139a1565b825550505050565b600090565b613a5b613a4e565b613a66818484613a29565b505050565b5b81811015613a8a57613a7f600082613a53565b600181019050613a6c565b5050565b601f821115613acf57613aa08161396f565b613aa984613984565b81016020851015613ab8578190505b613acc613ac485613984565b830182613a6b565b50505b505050565b600082821c905092915050565b6000613af260001984600802613ad4565b1980831691505092915050565b6000613b0b8383613ae1565b9150826002028217905092915050565b613b2482612725565b67ffffffffffffffff811115613b3d57613b3c612907565b5b613b478254612ebb565b613b52828285613a8e565b600060209050601f831160018114613b855760008415613b73578287015190505b613b7d8582613aff565b865550613be5565b601f198416613b938661396f565b60005b82811015613bbb57848901518255600182019150602085019450602081019050613b96565b86831015613bd85784890151613bd4601f891682613ae1565b8355505b6001600288020188555050505b505050505050565b600081519050919050565b600082825260208201905092915050565b6000613c1482613bed565b613c1e8185613bf8565b9350613c2e818560208601612741565b613c378161276b565b840191505092915050565b6000608082019050613c57600083018761286c565b613c64602083018661286c565b613c716040830185612b26565b8181036060830152613c838184613c09565b905095945050505050565b600081519050613c9d81612696565b92915050565b600060208284031215613cb957613cb8612660565b5b6000613cc784828501613c8e565b91505092915050565b7f4552433732313a206d696e7420746f20746865207a65726f2061646472657373600082015250565b6000613d06602083612730565b9150613d1182613cd0565b602082019050919050565b60006020820190508181036000830152613d3581613cf9565b9050919050565b7f4552433732313a20746f6b656e20616c7265616479206d696e74656400000000600082015250565b6000613d72601c83612730565b9150613d7d82613d3c565b602082019050919050565b60006020820190508181036000830152613da181613d65565b905091905056fea2646970667358221220733ac2ff84d73ac51ae61691191967e6f88778191ba0485d5c840cbd96e8300864736f6c63430008110033",
  "devdoc": {
    "kind": "dev",
    "methods": {
      "approve(address,uint256)": {
        "details": "See {IERC721-approve}."
      },
      "balanceOf(address)": {
        "details": "See {IERC721-balanceOf}."
      },
      "getApproved(uint256)": {
        "details": "See {IERC721-getApproved}."
      },
      "isApprovedForAll(address,address)": {
        "details": "See {IERC721-isApprovedForAll}."
      },
      "name()": {
        "details": "See {IERC721Metadata-name}."
      },
      "owner()": {
        "details": "Returns the address of the current owner."
      },
      "ownerOf(uint256)": {
        "details": "See {IERC721-ownerOf}."
      },
      "paused()": {
        "details": "Returns true if the contract is paused, and false otherwise."
      },
      "renounceOwnership()": {
        "details": "Leaves the contract without owner. It will not be possible to call `onlyOwner` functions anymore. Can only be called by the current owner. NOTE: Renouncing ownership will leave the contract without an owner, thereby removing any functionality that is only available to the owner."
      },
      "safeTransferFrom(address,address,uint256)": {
        "details": "See {IERC721-safeTransferFrom}."
      },
      "safeTransferFrom(address,address,uint256,bytes)": {
        "details": "See {IERC721-safeTransferFrom}."
      },
      "setApprovalForAll(address,bool)": {
        "details": "See {IERC721-setApprovalForAll}."
      },
      "supportsInterface(bytes4)": {
        "details": "See {IERC165-supportsInterface}."
      },
      "symbol()": {
        "details": "See {IERC721Metadata-symbol}."
      },
      "tokenURI(uint256)": {
        "details": "See {IERC721Metadata-tokenURI}."
      },
      "transferFrom(address,address,uint256)": {
        "details": "See {IERC721-transferFrom}."
      },
      "transferOwnership(address)": {
        "details": "Transfers ownership of the contract to a new account (`newOwner`). Can only be called by the current owner."
      }
    },
    "version": 1
  },
  "userdoc": {
    "kind": "user",
    "methods": {},
    "version": 1
  },
  "storageLayout": {
    "storage": [
      {
        "astId": 454,
        "contract": "contracts/randomNFT.sol:RandomNFT",
        "label": "_name",
        "offset": 0,
        "slot": "0",
        "type": "t_string_storage"
      },
      {
        "astId": 456,
        "contract": "contracts/randomNFT.sol:RandomNFT",
        "label": "_symbol",
        "offset": 0,
        "slot": "1",
        "type": "t_string_storage"
      },
      {
        "astId": 460,
        "contract": "contracts/randomNFT.sol:RandomNFT",
        "label": "_owners",
        "offset": 0,
        "slot": "2",
        "type": "t_mapping(t_uint256,t_address)"
      },
      {
        "astId": 464,
        "contract": "contracts/randomNFT.sol:RandomNFT",
        "label": "_balances",
        "offset": 0,
        "slot": "3",
        "type": "t_mapping(t_address,t_uint256)"
      },
      {
        "astId": 468,
        "contract": "contracts/randomNFT.sol:RandomNFT",
        "label": "_tokenApprovals",
        "offset": 0,
        "slot": "4",
        "type": "t_mapping(t_uint256,t_address)"
      },
      {
        "astId": 474,
        "contract": "contracts/randomNFT.sol:RandomNFT",
        "label": "_operatorApprovals",
        "offset": 0,
        "slot": "5",
        "type": "t_mapping(t_address,t_mapping(t_address,t_bool))"
      },
      {
        "astId": 1502,
        "contract": "contracts/randomNFT.sol:RandomNFT",
        "label": "_tokenURIs",
        "offset": 0,
        "slot": "6",
        "type": "t_mapping(t_uint256,t_string_storage)"
      },
      {
        "astId": 161,
        "contract": "contracts/randomNFT.sol:RandomNFT",
        "label": "_owner",
        "offset": 0,
        "slot": "7",
        "type": "t_address"
      },
      {
        "astId": 385,
        "contract": "contracts/randomNFT.sol:RandomNFT",
        "label": "_status",
        "offset": 0,
        "slot": "8",
        "type": "t_uint256"
      },
      {
        "astId": 284,
        "contract": "contracts/randomNFT.sol:RandomNFT",
        "label": "_paused",
        "offset": 0,
        "slot": "9",
        "type": "t_bool"
      },
      {
        "astId": 3417,
        "contract": "contracts/randomNFT.sol:RandomNFT",
        "label": "s_tokenId",
        "offset": 0,
        "slot": "10",
        "type": "t_uint256"
      },
      {
        "astId": 3428,
        "contract": "contracts/randomNFT.sol:RandomNFT",
        "label": "i_requestId",
        "offset": 0,
        "slot": "11",
        "type": "t_uint256"
      },
      {
        "astId": 3431,
        "contract": "contracts/randomNFT.sol:RandomNFT",
        "label": "NFT_URI",
        "offset": 0,
        "slot": "12",
        "type": "t_array(t_string_storage)dyn_storage"
      },
      {
        "astId": 3447,
        "contract": "contracts/randomNFT.sol:RandomNFT",
        "label": "requestIdToOwner",
        "offset": 0,
        "slot": "13",
        "type": "t_mapping(t_uint256,t_address)"
      }
    ],
    "types": {
      "t_address": {
        "encoding": "inplace",
        "label": "address",
        "numberOfBytes": "20"
      },
      "t_array(t_string_storage)dyn_storage": {
        "base": "t_string_storage",
        "encoding": "dynamic_array",
        "label": "string[]",
        "numberOfBytes": "32"
      },
      "t_bool": {
        "encoding": "inplace",
        "label": "bool",
        "numberOfBytes": "1"
      },
      "t_mapping(t_address,t_bool)": {
        "encoding": "mapping",
        "key": "t_address",
        "label": "mapping(address => bool)",
        "numberOfBytes": "32",
        "value": "t_bool"
      },
      "t_mapping(t_address,t_mapping(t_address,t_bool))": {
        "encoding": "mapping",
        "key": "t_address",
        "label": "mapping(address => mapping(address => bool))",
        "numberOfBytes": "32",
        "value": "t_mapping(t_address,t_bool)"
      },
      "t_mapping(t_address,t_uint256)": {
        "encoding": "mapping",
        "key": "t_address",
        "label": "mapping(address => uint256)",
        "numberOfBytes": "32",
        "value": "t_uint256"
      },
      "t_mapping(t_uint256,t_address)": {
        "encoding": "mapping",
        "key": "t_uint256",
        "label": "mapping(uint256 => address)",
        "numberOfBytes": "32",
        "value": "t_address"
      },
      "t_mapping(t_uint256,t_string_storage)": {
        "encoding": "mapping",
        "key": "t_uint256",
        "label": "mapping(uint256 => string)",
        "numberOfBytes": "32",
        "value": "t_string_storage"
      },
      "t_string_storage": {
        "encoding": "bytes",
        "label": "string",
        "numberOfBytes": "32"
      },
      "t_uint256": {
        "encoding": "inplace",
        "label": "uint256",
        "numberOfBytes": "32"
      }
    }
  }
}