{
  "address": "0x743cb8c0335b1197a74eb0ca407f7db8e6bfdb5f",
  "abi": [
    {
      "inputs": [],
      "stateMutability": "nonpayable",
      "type": "constructor"
    },
    {
      "inputs": [
        {
          "internalType": "string",
          "name": "",
          "type": "string"
        }
      ],
      "name": "Donate_InsufficientBalance",
      "type": "error"
    },
    {
      "inputs": [
        {
          "internalType": "string",
          "name": "",
          "type": "string"
        }
      ],
      "name": "Donate_enterAFee",
      "type": "error"
    },
    {
      "inputs": [
        {
          "internalType": "string",
          "name": "",
          "type": "string"
        }
      ],
      "name": "Donate_lowContractBalance",
      "type": "error"
    },
    {
      "inputs": [
        {
          "internalType": "string",
          "name": "",
          "type": "string"
        }
      ],
      "name": "Donate_notAccessToWithdraw",
      "type": "error"
    },
    {
      "inputs": [
        {
          "internalType": "string",
          "name": "",
          "type": "string"
        }
      ],
      "name": "Donate_withdrawalNotSuccessFul",
      "type": "error"
    },
    {
      "anonymous": false,
      "inputs": [
        {
          "indexed": true,
          "internalType": "uint256",
          "name": "amountDonated",
          "type": "uint256"
        },
        {
          "indexed": true,
          "internalType": "address",
          "name": "donator",
          "type": "address"
        }
      ],
      "name": "feeDonated",
      "type": "event"
    },
    {
      "stateMutability": "payable",
      "type": "fallback"
    },
    {
      "inputs": [
        {
          "internalType": "address",
          "name": "",
          "type": "address"
        }
      ],
      "name": "balanceOf",
      "outputs": [
        {
          "internalType": "uint256",
          "name": "",
          "type": "uint256"
        }
      ],
      "stateMutability": "view",
      "type": "function"
    },
    {
      "inputs": [
        {
          "internalType": "uint256",
          "name": "index",
          "type": "uint256"
        }
      ],
      "name": "getADonator",
      "outputs": [
        {
          "internalType": "address",
          "name": "",
          "type": "address"
        }
      ],
      "stateMutability": "view",
      "type": "function"
    },
    {
      "inputs": [],
      "name": "getBalance",
      "outputs": [
        {
          "internalType": "uint256",
          "name": "",
          "type": "uint256"
        }
      ],
      "stateMutability": "view",
      "type": "function"
    },
    {
      "inputs": [],
      "name": "getDonatorList",
      "outputs": [
        {
          "internalType": "address[]",
          "name": "",
          "type": "address[]"
        }
      ],
      "stateMutability": "view",
      "type": "function"
    },
    {
      "inputs": [],
      "name": "payFee",
      "outputs": [],
      "stateMutability": "payable",
      "type": "function"
    },
    {
      "inputs": [],
      "name": "withdrawFunds",
      "outputs": [],
      "stateMutability": "nonpayable",
      "type": "function"
    },
    {
      "stateMutability": "payable",
      "type": "receive"
    }
  ],
  "transactionHash": "0xaf65a4cace42495905f78f0abe2974dbaa5ba69245fea21d292ed88c6f052531",
  "args": [],
  "numDeployments": 3,
  "solcInputHash": "9caa68ec398f77785320d10698c0cd7d",
  "bytecode": "0x60806040526103e860035534801561001657600080fd5b50600160008190555033600260006101000a81548173ffffffffffffffffffffffffffffffffffffffff021916908373ffffffffffffffffffffffffffffffffffffffff160217905550610b3a8061006f6000396000f3fe6080604052600436106100595760003560e01c806312065fe01461007257806324600fc31461009d57806329610252146100b457806370a08231146100be5780639390990d146100fb578063f63b84671461013857610068565b3661006857610066610163565b005b610070610163565b005b34801561007e57600080fd5b5061008761032e565b604051610094919061062e565b60405180910390f35b3480156100a957600080fd5b506100b2610336565b005b6100bc610163565b005b3480156100ca57600080fd5b506100e560048036038101906100e091906106ac565b6104ce565b6040516100f2919061062e565b60405180910390f35b34801561010757600080fd5b50610122600480360381019061011d9190610705565b6104e6565b60405161012f9190610741565b60405180910390f35b34801561014457600080fd5b5061014d61052e565b60405161015a919061081a565b60405180910390f35b60035434116101a7576040517ff6683b5e00000000000000000000000000000000000000000000000000000000815260040161019e90610899565b60405180910390fd5b3373ffffffffffffffffffffffffffffffffffffffff1631600460003373ffffffffffffffffffffffffffffffffffffffff1673ffffffffffffffffffffffffffffffffffffffff16815260200190815260200160002081905550600354600460003373ffffffffffffffffffffffffffffffffffffffff1673ffffffffffffffffffffffffffffffffffffffff1681526020019081526020016000205411610285576040517fd34cf16c00000000000000000000000000000000000000000000000000000000815260040161027c90610905565b60405180910390fd5b6001339080600181540180825580915050600190039060005260206000200160009091909190916101000a81548173ffffffffffffffffffffffffffffffffffffffff021916908373ffffffffffffffffffffffffffffffffffffffff1602179055503373ffffffffffffffffffffffffffffffffffffffff16347f59995317374f6ca6fd87bf133a98995fc3d5c3e970d6d008b29b84dfbdcf5e8460405160405180910390a3565b600047905090565b3373ffffffffffffffffffffffffffffffffffffffff16600260009054906101000a900473ffffffffffffffffffffffffffffffffffffffff1673ffffffffffffffffffffffffffffffffffffffff16146103c6576040517f31c1f32f0000000000000000000000000000000000000000000000000000000081526004016103bd90610971565b60405180910390fd5b6103ce6105bc565b600047905060008111610416576040517f95aaca8900000000000000000000000000000000000000000000000000000000815260040161040d90610905565b60405180910390fd5b60003373ffffffffffffffffffffffffffffffffffffffff168260405161043c906109c2565b60006040518083038185875af1925050503d8060008114610479576040519150601f19603f3d011682016040523d82523d6000602084013e61047e565b606091505b50509050806104c2576040517f14d5bcd80000000000000000000000000000000000000000000000000000000081526004016104b990610a49565b60405180910390fd5b50506104cc61060b565b565b60046020528060005260406000206000915090505481565b6000600182815481106104fc576104fb610a69565b5b9060005260206000200160009054906101000a900473ffffffffffffffffffffffffffffffffffffffff169050919050565b606060018054806020026020016040519081016040528092919081815260200182805480156105b257602002820191906000526020600020905b8160009054906101000a900473ffffffffffffffffffffffffffffffffffffffff1673ffffffffffffffffffffffffffffffffffffffff1681526020019060010190808311610568575b5050505050905090565b600260005403610601576040517f08c379a00000000000000000000000000000000000000000000000000000000081526004016105f890610ae4565b60405180910390fd5b6002600081905550565b6001600081905550565b6000819050919050565b61062881610615565b82525050565b6000602082019050610643600083018461061f565b92915050565b600080fd5b600073ffffffffffffffffffffffffffffffffffffffff82169050919050565b60006106798261064e565b9050919050565b6106898161066e565b811461069457600080fd5b50565b6000813590506106a681610680565b92915050565b6000602082840312156106c2576106c1610649565b5b60006106d084828501610697565b91505092915050565b6106e281610615565b81146106ed57600080fd5b50565b6000813590506106ff816106d9565b92915050565b60006020828403121561071b5761071a610649565b5b6000610729848285016106f0565b91505092915050565b61073b8161066e565b82525050565b60006020820190506107566000830184610732565b92915050565b600081519050919050565b600082825260208201905092915050565b6000819050602082019050919050565b6107918161066e565b82525050565b60006107a38383610788565b60208301905092915050565b6000602082019050919050565b60006107c78261075c565b6107d18185610767565b93506107dc83610778565b8060005b8381101561080d5781516107f48882610797565b97506107ff836107af565b9250506001810190506107e0565b5085935050505092915050565b6000602082019050818103600083015261083481846107bc565b905092915050565b600082825260208201905092915050565b7f456e74657220612076616c75652067726561746572207468616e207a65726f00600082015250565b6000610883601f8361083c565b915061088e8261084d565b602082019050919050565b600060208201905081810360008301526108b281610876565b9050919050565b7f4c6f772042616c616e6365000000000000000000000000000000000000000000600082015250565b60006108ef600b8361083c565b91506108fa826108b9565b602082019050919050565b6000602082019050818103600083015261091e816108e2565b9050919050565b7f596f7520617265206e6f7420746865206f776e65720000000000000000000000600082015250565b600061095b60158361083c565b915061096682610925565b602082019050919050565b6000602082019050818103600083015261098a8161094e565b9050919050565b600081905092915050565b50565b60006109ac600083610991565b91506109b78261099c565b600082019050919050565b60006109cd8261099f565b9150819050919050565b7f796f7572207769746864726177616c20776173206e6f7420737563636573736660008201527f756c2e2074727920616761696e00000000000000000000000000000000000000602082015250565b6000610a33602d8361083c565b9150610a3e826109d7565b604082019050919050565b60006020820190508181036000830152610a6281610a26565b9050919050565b7f4e487b7100000000000000000000000000000000000000000000000000000000600052603260045260246000fd5b7f5265656e7472616e637947756172643a207265656e7472616e742063616c6c00600082015250565b6000610ace601f8361083c565b9150610ad982610a98565b602082019050919050565b60006020820190508181036000830152610afd81610ac1565b905091905056fea2646970667358221220d6f95b575228681c58d1b10d7898c1b1bfac078e64ac467191946b53701d1f7564736f6c63430008110033",
  "devdoc": {
    "kind": "dev",
    "methods": {},
    "version": 1
  },
  "userdoc": {
    "kind": "user",
    "methods": {},
    "version": 1
  },
  "storageLayout": {
    "storage": [
      {
        "astId": 10,
        "contract": "contracts/donate.sol:Donate",
        "label": "_status",
        "offset": 0,
        "slot": "0",
        "type": "t_uint256"
      },
      {
        "astId": 81,
        "contract": "contracts/donate.sol:Donate",
        "label": "donatorList",
        "offset": 0,
        "slot": "1",
        "type": "t_array(t_address)dyn_storage"
      },
      {
        "astId": 83,
        "contract": "contracts/donate.sol:Donate",
        "label": "owner",
        "offset": 0,
        "slot": "2",
        "type": "t_address"
      },
      {
        "astId": 86,
        "contract": "contracts/donate.sol:Donate",
        "label": "MINIMUM_VALUE",
        "offset": 0,
        "slot": "3",
        "type": "t_uint256"
      },
      {
        "astId": 90,
        "contract": "contracts/donate.sol:Donate",
        "label": "balanceOf",
        "offset": 0,
        "slot": "4",
        "type": "t_mapping(t_address,t_uint256)"
      }
    ],
    "types": {
      "t_address": {
        "encoding": "inplace",
        "label": "address",
        "numberOfBytes": "20"
      },
      "t_array(t_address)dyn_storage": {
        "base": "t_address",
        "encoding": "dynamic_array",
        "label": "address[]",
        "numberOfBytes": "32"
      },
      "t_mapping(t_address,t_uint256)": {
        "encoding": "mapping",
        "key": "t_address",
        "label": "mapping(address => uint256)",
        "numberOfBytes": "32",
        "value": "t_uint256"
      },
      "t_uint256": {
        "encoding": "inplace",
        "label": "uint256",
        "numberOfBytes": "32"
      }
    }
  }
}