{
  "address": "0xEE6C16967926FaF5a2d040E85C102549401bee39",
  "abi": [
    {
      "inputs": [],
      "stateMutability": "nonpayable",
      "type": "constructor"
    },
    {
      "inputs": [
        {
          "internalType": "string",
          "name": "",
          "type": "string"
        }
      ],
      "name": "Donate_InsufficientBalance",
      "type": "error"
    },
    {
      "inputs": [
        {
          "internalType": "string",
          "name": "",
          "type": "string"
        }
      ],
      "name": "Donate_enterAFee",
      "type": "error"
    },
    {
      "inputs": [
        {
          "internalType": "string",
          "name": "",
          "type": "string"
        }
      ],
      "name": "Donate_lowContractBalance",
      "type": "error"
    },
    {
      "inputs": [
        {
          "internalType": "string",
          "name": "",
          "type": "string"
        }
      ],
      "name": "Donate_notAccessToWithdraw",
      "type": "error"
    },
    {
      "inputs": [
        {
          "internalType": "string",
          "name": "",
          "type": "string"
        }
      ],
      "name": "Donate_withdrawalNotSuccessFul",
      "type": "error"
    },
    {
      "anonymous": false,
      "inputs": [
        {
          "indexed": true,
          "internalType": "uint256",
          "name": "amountDonated",
          "type": "uint256"
        },
        {
          "indexed": true,
          "internalType": "address",
          "name": "donator",
          "type": "address"
        }
      ],
      "name": "feeDonated",
      "type": "event"
    },
    {
      "inputs": [
        {
          "internalType": "address",
          "name": "",
          "type": "address"
        }
      ],
      "name": "balanceOf",
      "outputs": [
        {
          "internalType": "uint256",
          "name": "",
          "type": "uint256"
        }
      ],
      "stateMutability": "view",
      "type": "function"
    },
    {
      "inputs": [],
      "name": "getBalance",
      "outputs": [
        {
          "internalType": "uint256",
          "name": "",
          "type": "uint256"
        }
      ],
      "stateMutability": "view",
      "type": "function"
    },
    {
      "inputs": [
        {
          "internalType": "uint256",
          "name": "index",
          "type": "uint256"
        }
      ],
      "name": "getDonatorList",
      "outputs": [
        {
          "internalType": "address",
          "name": "",
          "type": "address"
        }
      ],
      "stateMutability": "view",
      "type": "function"
    },
    {
      "inputs": [],
      "name": "payFee",
      "outputs": [],
      "stateMutability": "payable",
      "type": "function"
    },
    {
      "inputs": [],
      "name": "withdrawFunds",
      "outputs": [],
      "stateMutability": "nonpayable",
      "type": "function"
    }
  ],
  "transactionHash": "0x528d40cf0d8eb1e0dd48f0f29b31498f678b6881bd712d6ac473ac611df98c50",
  "args": [],
  "numDeployments": 1,
  "solcInputHash": "19b9f4273ba8293c985eef9a35218253",
  "bytecode": "0x60806040526305f5e10060035534801561001857600080fd5b50600160008190555033600260006101000a81548173ffffffffffffffffffffffffffffffffffffffff021916908373ffffffffffffffffffffffffffffffffffffffff16021790555061097e806100716000396000f3fe60806040526004361061004a5760003560e01c806312065fe01461004f57806324600fc31461007a578063296102521461009157806370a082311461009b5780637c3eee7a146100d8575b600080fd5b34801561005b57600080fd5b50610064610115565b6040516100719190610552565b60405180910390f35b34801561008657600080fd5b5061008f61011d565b005b6100996102b5565b005b3480156100a757600080fd5b506100c260048036038101906100bd91906105d0565b610480565b6040516100cf9190610552565b60405180910390f35b3480156100e457600080fd5b506100ff60048036038101906100fa9190610629565b610498565b60405161010c9190610665565b60405180910390f35b600047905090565b3373ffffffffffffffffffffffffffffffffffffffff16600260009054906101000a900473ffffffffffffffffffffffffffffffffffffffff1673ffffffffffffffffffffffffffffffffffffffff16146101ad576040517f31c1f32f0000000000000000000000000000000000000000000000000000000081526004016101a4906106dd565b60405180910390fd5b6101b56104e0565b6000479050600081116101fd576040517f95aaca890000000000000000000000000000000000000000000000000000000081526004016101f490610749565b60405180910390fd5b60003373ffffffffffffffffffffffffffffffffffffffff16826040516102239061079a565b60006040518083038185875af1925050503d8060008114610260576040519150601f19603f3d011682016040523d82523d6000602084013e610265565b606091505b50509050806102a9576040517f14d5bcd80000000000000000000000000000000000000000000000000000000081526004016102a090610821565b60405180910390fd5b50506102b361052f565b565b60035434116102f9576040517ff6683b5e0000000000000000000000000000000000000000000000000000000081526004016102f09061088d565b60405180910390fd5b3373ffffffffffffffffffffffffffffffffffffffff1631600460003373ffffffffffffffffffffffffffffffffffffffff1673ffffffffffffffffffffffffffffffffffffffff16815260200190815260200160002081905550600354600460003373ffffffffffffffffffffffffffffffffffffffff1673ffffffffffffffffffffffffffffffffffffffff16815260200190815260200160002054116103d7576040517fd34cf16c0000000000000000000000000000000000000000000000000000000081526004016103ce90610749565b60405180910390fd5b6001339080600181540180825580915050600190039060005260206000200160009091909190916101000a81548173ffffffffffffffffffffffffffffffffffffffff021916908373ffffffffffffffffffffffffffffffffffffffff1602179055503373ffffffffffffffffffffffffffffffffffffffff16347f59995317374f6ca6fd87bf133a98995fc3d5c3e970d6d008b29b84dfbdcf5e8460405160405180910390a3565b60046020528060005260406000206000915090505481565b6000600182815481106104ae576104ad6108ad565b5b9060005260206000200160009054906101000a900473ffffffffffffffffffffffffffffffffffffffff169050919050565b600260005403610525576040517f08c379a000000000000000000000000000000000000000000000000000000000815260040161051c90610928565b60405180910390fd5b6002600081905550565b6001600081905550565b6000819050919050565b61054c81610539565b82525050565b60006020820190506105676000830184610543565b92915050565b600080fd5b600073ffffffffffffffffffffffffffffffffffffffff82169050919050565b600061059d82610572565b9050919050565b6105ad81610592565b81146105b857600080fd5b50565b6000813590506105ca816105a4565b92915050565b6000602082840312156105e6576105e561056d565b5b60006105f4848285016105bb565b91505092915050565b61060681610539565b811461061157600080fd5b50565b600081359050610623816105fd565b92915050565b60006020828403121561063f5761063e61056d565b5b600061064d84828501610614565b91505092915050565b61065f81610592565b82525050565b600060208201905061067a6000830184610656565b92915050565b600082825260208201905092915050565b7f596f7520617265206e6f7420746865206f776e65720000000000000000000000600082015250565b60006106c7601583610680565b91506106d282610691565b602082019050919050565b600060208201905081810360008301526106f6816106ba565b9050919050565b7f4c6f772042616c616e6365000000000000000000000000000000000000000000600082015250565b6000610733600b83610680565b915061073e826106fd565b602082019050919050565b6000602082019050818103600083015261076281610726565b9050919050565b600081905092915050565b50565b6000610784600083610769565b915061078f82610774565b600082019050919050565b60006107a582610777565b9150819050919050565b7f796f7572207769746864726177616c20776173206e6f7420737563636573736660008201527f756c2e2074727920616761696e00000000000000000000000000000000000000602082015250565b600061080b602d83610680565b9150610816826107af565b604082019050919050565b6000602082019050818103600083015261083a816107fe565b9050919050565b7f456e74657220612076616c75652067726561746572207468616e207a65726f00600082015250565b6000610877601f83610680565b915061088282610841565b602082019050919050565b600060208201905081810360008301526108a68161086a565b9050919050565b7f4e487b7100000000000000000000000000000000000000000000000000000000600052603260045260246000fd5b7f5265656e7472616e637947756172643a207265656e7472616e742063616c6c00600082015250565b6000610912601f83610680565b915061091d826108dc565b602082019050919050565b6000602082019050818103600083015261094181610905565b905091905056fea2646970667358221220e523efa08e31c0a6469b7cd880d92cfd5e1447486014d68c5b67e1761390799764736f6c63430008110033",
  "devdoc": {
    "kind": "dev",
    "methods": {},
    "version": 1
  },
  "userdoc": {
    "kind": "user",
    "methods": {},
    "version": 1
  },
  "storageLayout": {
    "storage": [
      {
        "astId": 10,
        "contract": "contracts/donate.sol:Donate",
        "label": "_status",
        "offset": 0,
        "slot": "0",
        "type": "t_uint256"
      },
      {
        "astId": 81,
        "contract": "contracts/donate.sol:Donate",
        "label": "donatorList",
        "offset": 0,
        "slot": "1",
        "type": "t_array(t_address)dyn_storage"
      },
      {
        "astId": 83,
        "contract": "contracts/donate.sol:Donate",
        "label": "owner",
        "offset": 0,
        "slot": "2",
        "type": "t_address"
      },
      {
        "astId": 86,
        "contract": "contracts/donate.sol:Donate",
        "label": "MINIMUM_VALUE",
        "offset": 0,
        "slot": "3",
        "type": "t_uint256"
      },
      {
        "astId": 90,
        "contract": "contracts/donate.sol:Donate",
        "label": "balanceOf",
        "offset": 0,
        "slot": "4",
        "type": "t_mapping(t_address,t_uint256)"
      }
    ],
    "types": {
      "t_address": {
        "encoding": "inplace",
        "label": "address",
        "numberOfBytes": "20"
      },
      "t_array(t_address)dyn_storage": {
        "base": "t_address",
        "encoding": "dynamic_array",
        "label": "address[]",
        "numberOfBytes": "32"
      },
      "t_mapping(t_address,t_uint256)": {
        "encoding": "mapping",
        "key": "t_address",
        "label": "mapping(address => uint256)",
        "numberOfBytes": "32",
        "value": "t_uint256"
      },
      "t_uint256": {
        "encoding": "inplace",
        "label": "uint256",
        "numberOfBytes": "32"
      }
    }
  }
}